01#BPA#2023050026980000502061SECRETARIA DE SAUDE           31040018140756000100CRISTIANE GONCAVES PEREIRA              M3.01      
03216564320230570820163211874022512520230415001010301010072898006216240767F310400    00200000102             BPALAURA DE CASTRO TEODORO       2020091701    010                                38180081081RUA IDELCIO JOSE RUFINO       None      935 APARQUE DAS MANGABEIRAS                                                                     
03216564320230570820163211874022512520230415001020301010072898006216240767F310400    00200000102             BPALAURA DE CASTRO TEODORO       2020091701    010                                38180081081RUA IDELCIO JOSE RUFINO       None      935 APARQUE DAS MANGABEIRAS                                                                     
03216564320230570820163211874022512520230415001030301010072700003444074101M310400    01200000102             BPASAMUEL PIRES DE LIMA          2011011503    010                                38180081081RUA JUCA FERREIRA             None      505  VILA SILVERIA                                                                              
03216564320230570820163211874022512520230415001040301010072708906722954619F310400    06700000102             BPAELENICE ALVES BUENO           1956011301    010                                38180081081RUA ROSSINI RODRIGUES DUARTE  None      345  BOA VISTA                                                                                  
03216564320230570820163211874022512520230415001050301010072898001963131926F310400    05800000102             BPAZILENE APARECIDA BORGES       1965010401    010                                38180081081RUA JOAO BATISTA DA COSTA     None      110  ODILON JOSE CARNEIRO                                                                       
03216564320230570820163211874022512520230415001060301010072702108726238497F310400    04000000102             BPAIRAN FRANCISCA DA SILVA PINTO 1982083001    010                                38180081081RUA PADRE ANTONIO MARCIGAGLIA None      123  CENTRO                                                                                     
03216564320230570820163211874022512520230415001070301010072708906722954619F310400    06700000102             BPAELENICE ALVES BUENO           1956011301    010                                38180081081RUA ROSSINI RODRIGUES DUARTE  None      345  BOA VISTA                                                                                  
03216564320230570820163211874022512520230415001080301010072898001963131926F310400    05800000102             BPAZILENE APARECIDA BORGES       1965010401    010                                38180081081RUA JOAO BATISTA DA COSTA     None      110  ODILON JOSE CARNEIRO                                                                       
03216564320230570820163211874022512520230415001090301010072706302736650574F310400    03400000102             BPALARISSE PAULA DE OLIVEIRA VARG1988090201    010                                38180081081RUA ALAMEDA DO LAGO           None      100  None                                                                                       
03216564320230570820163211874022512520230415001100301010072706302736650574F310400    03400000102             BPALARISSE PAULA DE OLIVEIRA VARG1988090201    010                                38180081081RUA ALAMEDA DO LAGO           None      100  None                                                                                       
03216564320230570820163211874022512520230415001110301010072702108726238497F310400    04000000102             BPAIRAN FRANCISCA DA SILVA PINTO 1982083001    010                                38180081081RUA PADRE ANTONIO MARCIGAGLIA None      123  CENTRO                                                                                     
03216564320230570820163211874022512520230415001120301010072702108726238497F310400    04000000102             BPAIRAN FRANCISCA DA SILVA PINTO 1982083001    010                                38180081081RUA PADRE ANTONIO MARCIGAGLIA None      123  CENTRO                                                                                     
03216564320230570820163211874022512520230415001130301010072707805616845714M310400    05600000102             BPAGILVAM SOARES BRITO           1967042003    010                                38180081081RUA TERENCIO PEREIRA          None      2057 SANTO ANTONIO                                                                              
03216564320230570820163211874022512520230415001140301010072704608172569620F310400    03600000102             BPAPAULA GRACIELE MARTINS        1986100503    010                                38180081081RUA MIGUEL MARTINIANO DA COSTANone      253  ALVORADA                                                                                   
03216564320230570820163211874022512520230415001150301010072700506172482750F310400    03500000102             BPASONIA APARECIDA DA SILVA      1988042502    010                                38180081081RUA PEDRO BRUNO DOS REIS      None      358  SANTO ANTONIO                                                                              
03216564320230570820163211874022512520230415001160301010072898006216240767F310400    00200000102             BPALAURA DE CASTRO TEODORO       2020091701    010                                38180081081RUA IDELCIO JOSE RUFINO       None      935 APARQUE DAS MANGABEIRAS                                                                     
03216564320230570820163211874022512520230415001170301010072898006216240767F310400    00200000102             BPALAURA DE CASTRO TEODORO       2020091701    010                                38180081081RUA IDELCIO JOSE RUFINO       None      935 APARQUE DAS MANGABEIRAS                                                                     
03216564320230570820163211874022512520230415001180301010072704608172569620F310400    03600000102             BPAPAULA GRACIELE MARTINS        1986100503    010                                38180081081RUA MIGUEL MARTINIANO DA COSTANone      253  ALVORADA                                                                                   
03216564320230570820163211874022512520230415001190301010072700506172482750F310400    03500000102             BPASONIA APARECIDA DA SILVA      1988042502    010                                38180081081RUA PEDRO BRUNO DOS REIS      None      358  SANTO ANTONIO                                                                              
03216564320230570820163211874022512520230415001200301010072709201219255439M310400    04300000102             BPAROBERTO JOSE DA CRUZ          1979101401    010                                38180081081RUA JORGE GOMES FILHO         None      150A LOTEAMENTO DONA ADELIA                                                                     
03216564320230570820163211874022512520230415002010301010072700409975237348M310400    03600000102             BPARAFAEL TARSO AMANCIO          1986111503    010                                38180081081RUA IVAI LUIZ COELHO          None      45   CONJUNTO HABITACIONAL PAO DE A                                                             
03216564320230570820163211874022512520230415002020301010072709201219255439M310400    04300000102             BPAROBERTO JOSE DA CRUZ          1979101401    010                                38180081081RUA JORGE GOMES FILHO         None      150A LOTEAMENTO DONA ADELIA                                                                     
03216564320230570820163211874022512520230415002030301010072898002841814833F310400    01900000102             BPAESTER LIMA DOS SANTOS         2003092801    010                                38180081081RUA JOANA DARC GONCALVES      None      40   ABOLICAO                                                                                   
03216564320230570820163211874022512520230415002040301010072898000595874683F310400    04100000102             BPAANGELA MARCIA SALES DOS REIS  1981080603    010                                38180081081RUA WALDEMAR PEREIRA BORGES   None      120  NOVO HORIZONTE                                                                             
03216564320230570820163211874022512520230415002050301010072898000595874683F310400    04100000102             BPAANGELA MARCIA SALES DOS REIS  1981080603    010                                38180081081RUA WALDEMAR PEREIRA BORGES   None      120  NOVO HORIZONTE                                                                             
03216564320230570820163211874022512520230415002060301010072704608172569620F310400    03600000102             BPAPAULA GRACIELE MARTINS        1986100503    010                                38180081081RUA MIGUEL MARTINIANO DA COSTANone      253  ALVORADA                                                                                   
03216564320230570820163211874022512520230415002070301010072704600157468226F310400    05600000102             BPAGISLENE GLORIA DA TRINDADE    1966071001    010                                38180081081RUA CLARICE DE FREITAS LEAL   None      45   SALOMAO DRUMOND                                                                            
03216564320230570820163211874022512520230415002080301010072703100813789360M310400    06600000102             BPAANTENOR FERREIRA GOULART NETO 1956082901    010                                38180081081TRAVESSA DEZ                  None      265  VILA SANTA LUZIA                                                                           
03216564320230570820163211874022512520230415002090301010072700501749753251F310400    00300000102             BPAHELENA SOFIA FERREIRA DA COSTA2019062601    010                                38180081081RUA SANTA CRUZ                None      38   FERTIZA                                                                                    
03216564320230570820163211874022512520230415002100301010072898005910502249F310400    00400000102             BPAEMANUELY DE MELO BORGES       2019030201    010                                38180081081RUA JUCA TORMIM               None      520  DOUTOR PEDRO PEZZUTI                                                                       
03216564320230570820163211874022512520230415002110301010072898004815775267M310400    00900000102             BPAVITOR GABRIEL RIBEIRO FONTES  2014042103    010                                38180081081AVENIDA HERCY DA SILVA LEMOS  None      135  VEREDAS DO BELVEDERE                                                                       
03216564320230570820163211874022512520230415002120301010072700409975237348M310400    03600000102             BPARAFAEL TARSO AMANCIO          1986111503    010                                38180081081RUA IVAI LUIZ COELHO          None      45   CONJUNTO HABITACIONAL PAO DE A                                                             
03216564320230570820163211874022512520230415002130301010072700409975237348M310400    03600000102             BPARAFAEL TARSO AMANCIO          1986111503    010                                38180081081RUA IVAI LUIZ COELHO          None      45   CONJUNTO HABITACIONAL PAO DE A                                                             
03216564320230570820163211874022512520230415002140301010072703001806168471M310400    04600000102             BPAVALMIR AFONSO DE OLIVEIRA     1976110801    010                                38180081081RUA AMADOR CARNEIRO DE MELO   None      635 APARQUE DAS MANGABEIRAS                                                                     
03216564320230570820163211874022512520230415002150301010072703001806168471M310400    04600000102             BPAVALMIR AFONSO DE OLIVEIRA     1976110801    010                                38180081081RUA AMADOR CARNEIRO DE MELO   None      635 APARQUE DAS MANGABEIRAS                                                                     
03216564320230570820163211874022512520230415002160301010072706302736650574F310400    03400000102             BPALARISSE PAULA DE OLIVEIRA VARG1988090201    010                                38180081081RUA ALAMEDA DO LAGO           None      100  None                                                                                       
03216564320230570820163211874022512520230415002170301010072898000595874683F310400    04100000102             BPAANGELA MARCIA SALES DOS REIS  1981080603    010                                38180081081RUA WALDEMAR PEREIRA BORGES   None      120  NOVO HORIZONTE                                                                             
03216564320230570820163211874022512520230427002180301010072700108956328416F310400    07400000102             BPALUZIA MARIA DOS SANTOS        1948110801    010                                38180081081RUA JO-12                     None      20   RESIDENCIAL JARDIM DAS OLIVEIR                                                             
03216564320230570820163211874022512520230427002190301010072898004803636917M310400    00800000102             BPAYURI TARDELLI BARBOSA         2015053003    010                                38180081081RUA JOSE HONORATO BORGES      None      270  PARQUE DAS MANGABEIRAS                                                                     
03216564320230570820163211874022512520230427002200301010072898003233607107F310400    06100000102             BPALUISA HELENA BENEDITO         1961110601    010                                38180081081TRAVESSA MANOEL ANTONIO DA SILNone      50   NOVO SANTO ANTONIO                                                                         
03216564320230570820163211874022512520230427003010301010072898005157852802M310400    00600000102             BPAMIGUEL FIORAVANTE FELICIO     2017032101    010                                38180081081RUA DAS PATATIVAS             None      385  CICINATO DE AVILA                                                                          
03216564320230570820163211874022512520230427003020301010072700108956328416F310400    07400000102             BPALUZIA MARIA DOS SANTOS        1948110801    010                                38180081081RUA JO-12                     None      20   RESIDENCIAL JARDIM DAS OLIVEIR                                                             
03216564320230570820163211874022512520230427003030301010072898000402577894F310400    05700000102             BPAMARIA DAS DORES NEIVA         1966041101    010                                38180081081RUA OSVALDO ALVARO DA SILVA   None      29 A VILA ESTANCIA                                                                              
03216564320230570820163211874022512520230427003040301010072702001826820982F310400    03800000102             BPAMARA NICEIA DE MATOS          1984081201    010                                38180081081RUA ARLINDO JOSE DA ROCHA     None      500  DONA BEJA                                                                                  
03216564320230570820163211874022512520230427003050301010072700509487048960F310400    02000000102             BPANATALYA ALVES COSTA           2002121403    010                                38180081081RUA CALIMERIO GUIMARAES       None      1339 CENTRO                                                                                     
03216564320230570820163211874022512520230427003060301010072700509487048960F310400    02000000102             BPANATALYA ALVES COSTA           2002121403    010                                38180081081RUA CALIMERIO GUIMARAES       None      1339 CENTRO                                                                                     
03216564320230570820163211874022512520230427003070301010072898000402577894F310400    05700000102             BPAMARIA DAS DORES NEIVA         1966041101    010                                38180081081RUA OSVALDO ALVARO DA SILVA   None      29 A VILA ESTANCIA                                                                              
03216564320230570820163211874022512520230427003080301010072704302542168290M310400    06400000102             BPALUIZ ROBERTO GERALDO          1958110101    010                                38180081081RUA LUIZ COLOMBO              None      452  CENTRO                                                                                     
03216564320230570820163211874022512520230427003090301010072704302542168290M310400    06400000102             BPALUIZ ROBERTO GERALDO          1958110101    010                                38180081081RUA LUIZ COLOMBO              None      452  CENTRO                                                                                     
03216564320230570820163211874022512520230427003100301010072898005887770459M310400    10900000102             BPAKENNEDY TAYLOR DE ALMEIDA CARN9300520 01    010                                38180081081RUA JUCA FERREIRA             None      631  VILA SILVERIA                                                                              
03216564320230570820163211874022512520230427003110301010072700108956328416F310400    07400000102             BPALUZIA MARIA DOS SANTOS        1948110801    010                                38180081081RUA JO-12                     None      20   RESIDENCIAL JARDIM DAS OLIVEIR                                                             
03216564320230570820163211874022512520230427003120301010072898003411665442F310400    04200000102             BPAJULIANA LUZIA DE CARVALHO     1980092703    010                                38180081081RUA JOSE JORGE RAGE           None      95   PEDRO PEZZUTI                                                                              
03216564320230570820163211874022512520230427003130301010072898003411665442F310400    04200000102             BPAJULIANA LUZIA DE CARVALHO     1980092703    010                                38180081081RUA JOSE JORGE RAGE           None      95   PEDRO PEZZUTI                                                                              
03216564320230570820163211874022512520230427003140301010072700509487048960F310400    02000000102             BPANATALYA ALVES COSTA           2002121403    010                                38180081081RUA CALIMERIO GUIMARAES       None      1339 CENTRO                                                                                     
03216564320230570820163211874022512520230427003150301010072702001826820982F310400    03800000102             BPAMARA NICEIA DE MATOS          1984081201    010                                38180081081RUA ARLINDO JOSE DA ROCHA     None      500  DONA BEJA                                                                                  
03216564320230570820163211874022512520230427003160301010072708604094675080M310400    01100000102             BPAEDUARDO PIERRE MOREIRA FIDELIS2011081601    010                                38180081081RUA MARIA DE LOURDES NASCIMENTNone      238  VILA SANTA TEREZINHA                                                                       
03216564320230570820163211874022512520230427003170301010072708604094675080M310400    01100000102             BPAEDUARDO PIERRE MOREIRA FIDELIS2011081601    010                                38180081081RUA MARIA DE LOURDES NASCIMENTNone      238  VILA SANTA TEREZINHA                                                                       
03216564320230570820163211874022512520230427003180301010072898004538926134F310400    01000000102             BPAMARIA CLARA MAGALHAES ABREU   2013060103    010                                38180081081RUA ROMAO BARBOSA             None      80   LOTEAMENTO RESIDENCIAL SOLARIS                                                             
03216564320230570820163211874022512520230427003190301010072707604265750091F310400    04300000102             BPAEDNA ELIANA DOS SANTOS        1980030603    010                                38180081081RUA AMARO PEREIRA GOMES       None      241  VILA ESTANCIA                                                                              
03216564320230570820163211874022512520230427003200301010072898004538926134F310400    01000000102             BPAMARIA CLARA MAGALHAES ABREU   2013060103    010                                38180081081RUA ROMAO BARBOSA             None      80   LOTEAMENTO RESIDENCIAL SOLARIS                                                             
03216564320230570820163211874022512520230427004010301010072898005859031418M310400    00500000102             BPAKAYO ROBERTO DE SOUZA         2018041902    010                                38180081081RUA JUSCELINO KUBISCHEK       None      25   JARDIM PRIMAVERA                                                                           
03216564320230570820163211874022512520230427004020301010072702508350298738F310400    03800000102             BPAFATIMA MAGALHAES BATISTA      1984091503    010                                38180081081RUA ROMAO BARBOSA             None      80   LOTEAMENTO RESIDENCIAL SOLARIS                                                             
03216564320230570820163211874022512520230429004030301010072203992485570018F310400    02900000102             BPAPAULA DE LOURDES PACHECO ALVES1994022603    010                                38180081081RUA JOSE HONORATO BORGES      None      135  PARQUE DAS MANGABEIRAS                                                                     
03216564320230570820163211874022512520230429004040301010072707300092212270F310400    05600000102             BPAROSEMARY MENDES FERREIRA      1967061701    010                                38180081081RUA JOSE TADEU DA SILVA       None      125  SANTO ANTONIO                                                                              
03216564320230570820163211874022512520230429004050301010072700207900680627F310400    07500000102             BPAELZA HELENA TEIXEIRA          1947080701    010                                38180081081RUA EUSTOGIO PINHEIRO         None      200  VILA ESTANCIA                                                                              
03216564320230570820163211874022512520230429004060301010072898003470164926M310400    04600000102             BPAADILSON APARECIDO CORREA DE AL1976091301    010                                38180081081RUA CARMEN DE OLIVEIRA LARA   None      135  ENGENHEIRO CLOVIS FREITAS LEAL                                                             
03216564320230570820163211874022512520230429004070301010072704001878436063F310400    08400000102             BPAESMERALDA BANDEIRA ARANHA     1938111603    010                                38180081081RUA ANTONIO DIMAS             None      995  ALVORADA                                                                                   
03216564320230570820163211874022512520230429004080301010072707300092212270F310400    05600000102             BPAROSEMARY MENDES FERREIRA      1967061701    010                                38180081081RUA JOSE TADEU DA SILVA       None      125  SANTO ANTONIO                                                                              
03216564320230570820163211874022512520230429004090301010072706303633224980F310400    05700000102             BPAROSEMARY CHAVES DOS SANTOS DON1966011001    010                                38180081081RUA RIO BRANCO                None      700  CENTRO                                                                                     
03216564320230570820163211874022512520230429004100301010072702805634255868F310400    07400000102             BPAGUIOMAR BORGES DE ARAUJO      1948102001    010                                38180081081RUA DONA QUETA BAPTISTA MACHADNone      60   ENGENHEIRO CLOVIS FREITAS LEAL                                                             
03216564320230570820163211874022512520230429004110301010072707409020357172F310400    00600000102             BPAALICIA VALENTINA FERREIRA BENT2016120101    010                                38180081081RUA PROFESSORA MARIA SOARES SANone      150  ARASOL                                                                                     
03216564320230570820163211874022512520230429004120301010072708605009474586F310400    08000000102             BPAALICE MARIA VIEIRA            1943051301    010                                38180081081RUA HERMANTINA DRUMON         None      45   JARDIM PRIMAVERA                                                                           
03216564320230570820163211874022512520230429004130301010072700506930806358M310400    01500000102             BPALUIZ FELIPE DOS ANJOS SILVA   2007120102    010                                38180081081AVENIDA DULCE SANTOS GUIMARAESNone      15   DONA BEIJA                                                                                 
03216564320230570820163211874022512520230429004140301010072700506930806358M310400    01500000102             BPALUIZ FELIPE DOS ANJOS SILVA   2007120102    010                                38180081081AVENIDA DULCE SANTOS GUIMARAESNone      15   DONA BEIJA                                                                                 
03216564320230570820163211874022512520230429004150301010072706303633224980F310400    05700000102             BPAROSEMARY CHAVES DOS SANTOS DON1966011001    010                                38180081081RUA RIO BRANCO                None      700  CENTRO                                                                                     
03216564320230570820163211874022512520230429004160301010072700002048279400F310400    07400000102             BPAAUXILIADORA DAS GRACAS BARCELO1949060801    010                                38180081081RUA JUCA GONCALVES            None      326  SANTO ANTONIO                                                                              
03216564320230570820163211874022512520230429004170301010072700002048279400F310400    07400000102             BPAAUXILIADORA DAS GRACAS BARCELO1949060801    010                                38180081081RUA JUCA GONCALVES            None      326  SANTO ANTONIO                                                                              
03216564320230570820163211874022512520230429004180301010072703409964836800F310400    04200000102             BPAELISANGELA RIBEIRO GUIMARAES  1980110403    010                                38180081081RUA FLORIPES MARIA DE JESUS   None      70   NOVO SANTO ANTONIO                                                                         
03216564320230570820163211874022512520230429004190301010072700506930806358M310400    01500000102             BPALUIZ FELIPE DOS ANJOS SILVA   2007120102    010                                38180081081AVENIDA DULCE SANTOS GUIMARAESNone      15   DONA BEIJA                                                                                 
03216564320230570820163211874022512520230429004200301010072703406525509500F310400    00300000102             BPAALICE GABRIELA DA SILVA LEMES 2019072002    010                                38180081081RUA JUCA GONCALVES            None      482  SANTO ANTONIO                                                                              
03216564320230570820163211874022512520230429005010301010072703409964836800F310400    04200000102             BPAELISANGELA RIBEIRO GUIMARAES  1980110403    010                                38180081081RUA FLORIPES MARIA DE JESUS   None      70   NOVO SANTO ANTONIO                                                                         
03216564320230570820163211874022512520230429005020301010072705407425279691M310400    00300000102             BPAENRICO CIRIACO SILVA LUCENA   2020052201    010                                38180081081RUA INGLATERRA                None      35   LOTEAMENTO NOVO HORIZONTE                                                                  
03216564320230570820163211874022512520230429005030301010072709602624736479F310400    04300000102             BPAEVELYN VILLELA SOUZA ROCHA    1980040801    010                                38180081081RUA DO OURO                   None      4    CENTRO                                                                                     
03216564320230570820163211874022512520230429005040301010072898004526305946F310400    01600000102             BPASOFIA COSTA SANTOS            2007061501    010                                38180081081RUA ANTONIO CABRAL            None      75   DOUTOR PEDRO PEZZUTI                                                                       
03216564320230570820163211874022512520230429005050301010072708605009474586F310400    08000000102             BPAALICE MARIA VIEIRA            1943051301    010                                38180081081RUA HERMANTINA DRUMON         None      45   JARDIM PRIMAVERA                                                                           
03216564320230570820163211874022512520230429006010301010072706303633224980F310400    05700000102             BPAROSEMARY CHAVES DOS SANTOS DON1966011001    010                                38180081081RUA RIO BRANCO                None      700  CENTRO                                                                                     
03216564320230570820163211874022512520230429006020301010072706500333113992F310400    00600000102             BPALUIZA EMANUELLE PELEGRINES DOS2017012101    010                                38180081081RUA  SEBASTIAO FERREIRA DA SILNone      55 F ARMANDO SANTOS                                                                             
03216564320230570820163211874022512520230429006030301010072898005920251419M310400    00300000102             BPAMARIA ELOA PELEGRINES DE SOUZA2019082303    010                                38180081081RUA SEBASTIAO FERREIRA DA SILVNone      55 F ARMANDO SANTOS                                                                             
03216564320230570820163211874022512520230429006040301010072707400041194770F310400    02400000102             BPALARISSA PELEGRINES MARTINS    1999013101    010                                38180081081RUA SEBASTIAO FERREIRA DA SILVNone      55 F ARMANDO SANTOS                                                                             
03216564320230570820163211874022512520230429006050301010072706500333113992F310400    00600000102             BPALUIZA EMANUELLE PELEGRINES DOS2017012101    010                                38180081081RUA  SEBASTIAO FERREIRA DA SILNone      55 F ARMANDO SANTOS                                                                             
03216564320230570820163211874022512520230429006060301010072700507552765259M310400    02200000102             BPAPABLO JOANNES DIAS            2000071701    010                                38180081081RUA JOSE SORAGGI              None      145  VEREDAS DA CIDADE                                                                          
03216564320230570820163211874022512520230429006070301010072898005817662339M310400    00500000102             BPAFLAVIANO JESUS DOS SANTOS JUNI2017092001    010                                38180081081RUA LUCAS DONIZETE MENEZES    None      120  LOTEAMENTO NOVO PAO DE ACUCAR                                                              
03216564320230570820163211874022512520230429006080301010072898001256369766F310400    01900000102             BPAMARIA ISABELY SILVA SENA      2003121802    010                                38180081081RUA SAO VICENTE               None      None CENTRO                                                                                     
03216564320230570820163211874022512520230429006090301010072898001256369766F310400    01900000102             BPAMARIA ISABELY SILVA SENA      2003121802    010                                38180081081RUA SAO VICENTE               None      None CENTRO                                                                                     
03216564320230570820163211874022512520230429006100301010072701401633184535F310400    08700000102             BPANADIR AFONSINA DA SILVA       1935102101    010                                38180081081RUA ARGEU ALVES DA COSTA      None      406  VILA SILVERIA                                                                              
03216564320230570820163211874022512520230429006110301010072701401633184535F310400    08700000102             BPANADIR AFONSINA DA SILVA       1935102101    010                                38180081081RUA ARGEU ALVES DA COSTA      None      406  VILA SILVERIA                                                                              
03216564320230570820163211874022512520230429006120301010072701401633184535F310400    08700000102             BPANADIR AFONSINA DA SILVA       1935102101    010                                38180081081RUA ARGEU ALVES DA COSTA      None      406  VILA SILVERIA                                                                              
03216564320230570820163211874022512520230429006130301010072709602624736479F310400    04300000102             BPAEVELYN VILLELA SOUZA ROCHA    1980040801    010                                38180081081RUA DO OURO                   None      4    CENTRO                                                                                     
03216564320230570820163211874022512520230429006140301010072898004526305946F310400    01600000102             BPASOFIA COSTA SANTOS            2007061501    010                                38180081081RUA ANTONIO CABRAL            None      75   DOUTOR PEDRO PEZZUTI                                                                       
03216564320230570820163211874022512520230429006150301010072898003717605781M310400    02300000102             BPAMAISSER VINICIUS PEREIRA      1999081301    010                                38180081081RUA ANTONIO PEREIRA DOS SANTOSNone      15   VILA ESTANCIA                                                                              
03216564320230570640166963478722512520230401007010301010072700609423065367F310400    06600000102             BPADALVA MARINA DE MELO          1957020601    010                                38180081081JOAO BATISTA DO NASCIMENTO    None      30   NOVO SANTO ANTONIO                                                                         
03216564320230570640166963478722512520230402007020301010072705407435482392M310400    08300000102             BPAJOAO BATISTA DE ARAUJO        1940012103    010                                38180081081RUA CALIMERIO GUIMARAES       None      20   CENTRO                                                                                     
03216564320230570640166963478722512520230405007030301010072705809489669839M310400    04900000102             BPALUIZ CLAUDIO GONCALVES        1973082703    010                                38180081081RUA AFONSINA BORGES VIEIRA    None      22   ALVORADA                                                                                   
03216564320230570640166963478722512520230405007040301010072706508382493490F310400    05800000102             BPAMARAIS DE  JESUS PERES        1965020501    010                                38180081081RUA DULCE MASCARENHAS TORRES  None      230  VILA SILVERIA                                                                              
03216564320230570640166963478722512520230405007050301010072700501349227552F310400    03400000102             BPADANIELA PATRICIA DE SOUZA ALVE1988121001    010                                38180081081RUA LYGIA VALLE CARDOSO       None      780  CONJUNTO HABITACIONAL BOA VIST                                                             
03216564320230570640166963478722512520230405007060301010072707407024832671F310400    02200000102             BPAALINE PRISCILA DA SILVA       2001031402    010                                38180081081RUA JOSE REINALDO DA SILVA    None      135  CONJUNTO HABITACIONAL BOA VIST                                                             
03216564320230570640166963478722512520230405007070301010072705809489669839M310400    04900000102             BPALUIZ CLAUDIO GONCALVES        1973082703    010                                38180081081RUA AFONSINA BORGES VIEIRA    None      22   ALVORADA                                                                                   
03216564320230570640166963478722512520230405007080301010072203816501240018F310400    07100000102             BPAMARIA MADALENA ALVES          1952040403    010                                38180081081RUA MODESTO CRISTINO FILHO    None      72   VILA SANTA LUZIA                                                                           
03216564320230570640166963478722512520230405007090301010072203816501240018F310400    07100000102             BPAMARIA MADALENA ALVES          1952040403    010                                38180081081RUA MODESTO CRISTINO FILHO    None      72   VILA SANTA LUZIA                                                                           
03216564320230570640166963478722512520230405007100301010072898004628943178M310400    01700000102             BPATALLYS ANDERSON ROCHA REIS    2005071601    010                                38180081081RUA TERENCIO PEREIRA          None      1940 SANTO ANTONIO                                                                              
03216564320230570640166963478722512520230405007110301010072704603629976028M310400    07700000102             BPACARLOS FERREIRA DE SENA       1946032601    010                                38180081081RUA MARIA ABADIA BORGES       None      170  JOSE FERREIRA GUIMARAES (MANGU                                                             
03216564320230570640166963478722512520230405007120301010072898002983275967F310400    06700000102             BPAGASPARINA DOS REIS DE FARIA   1956061701    010                                38180081081RUA AUGUSTO EDUARDO MONTANDON None      330  SALOMAO DRUMOND                                                                            
03216564320230570640166963478722512520230405007130301010072706907184771139F310400    02300000102             BPAANA CAROLINE JULIO BRUNO      2000010402    010                                38180081081RUA SANTO ANTONIO             None      989  SANTO ANTONIO                                                                              
03216564320230570640166963478722512520230405007140301010072898004038819916M310400    03700000102             BPABRUNO DA SILVA ARAUJO         1985072601    010                                38180081081RUA ANIVALDO FRANCISCO DA SILVNone      185  PARQUE DAS MANGABEIRAS                                                                     
03216564320230570640166963478722512520230405007150301010072708204614308048F310400    07100000102             BPAONOFRA MARLENE CORTES XAVIER  1952062203    010                                38180081081RUA MARIA ALVES FRANCO        None      40   BOA VISTA                                                                                  
03216564320230570640166963478722512520230405007160301010072702305168888915M310400    02100000102             BPABRENO DA SILVA SIQUEIRA CORDOV2001091902    010                                38180081081RUA JORDELINO JOSE CARNEIRO   None      530  SANTO ANTONIO                                                                              
03216564320230570640166963478722512520230405007170301010072704603629976028M310400    07700000102             BPACARLOS FERREIRA DE SENA       1946032601    010                                38180081081RUA MARIA ABADIA BORGES       None      170  JOSE FERREIRA GUIMARAES (MANGU                                                             
03216564320230570640166963478722512520230405007180301010072704603673941528F310400    04100000102             BPAMONALISA DE ARAUJO NORONHA FER1982040701    010                                38180081081RUA ANGELA BARCELOS           None      355  CONJUNTO HABITACIONAL PAO DE A                                                             
03216564320230570640166963478722512520230405007190301010072898002920176406F310400    02300000102             BPACAROLINE ISABELA JACO SANTOS  1999110303    010                                38180081081RUA CALIMERIO GUIMARAES       None      1339 CENTRO                                                                                     
03216564320230570640166963478722512520230405007200301010072704603673941528F310400    04100000102             BPAMONALISA DE ARAUJO NORONHA FER1982040701    010                                38180081081RUA ANGELA BARCELOS           None      355  CONJUNTO HABITACIONAL PAO DE A                                                             
03216564320230570640166963478722512520230405008010301010072708204614308048F310400    07100000102             BPAONOFRA MARLENE CORTES XAVIER  1952062203    010                                38180081081RUA MARIA ALVES FRANCO        None      40   BOA VISTA                                                                                  
03216564320230570640166963478722512520230405008020301010072898004876774333F310400    00700000102             BPAJULLIA SILVA RODRIGUES MIRANDA2015111001    010                                38180081081RUA GERALDA RUFINO BORGES     None      200  VEREDAS DA CIDADE                                                                          
03216564320230570640166963478722512520230405008030301010072898001015510770F310400    02300000102             BPADINA DA SILVA  LUIZ           1999110502    010                                38180081081RUA TERENCIO PEREIRA          None      542  SANTO ANTONIO                                                                              
03216564320230570640166963478722512520230405008040301010072700607998917368M310400    00100000102             BPACECILIA SILVESTRE CONTAGEM BOR2021080401    010                                38180081081RUA SANTO ANTONIO             None      406  SANTO ANTONIO                                                                              
03216564320230570640166963478722512520230405008050301010072708604585136686F310400    05600000102             BPAVERA LUCIA MACEDO XAVIER      1967011501    010                                38180081081TOLINHO MANEIRA               None      820 APORTAL CABURIU                                                                             
03216564320230570640166963478722512520230405008060301010072704208227367289F310400    04200000102             BPAANA CRISTINA ALVES            1981020501    010                                38180081081RUA AFONSINA BORGES VIEIRA    None      60   ALVORADA                                                                                   
03216564320230570640166963478722512520230405008070301010072700806412628883F310400    04400000102             BPAELAINE APARECIDA SANTANA      1978122802    010                                38180081081RUA GERALDA MACIEL TANNUS     None      442  SANTO ANTONIO                                                                              
03216564320230570640166963478722512520230405008080301010072707009809854333M310400    02100000102             BPACLARK RENNE DA CONCEICAO SANTO2002052403    010                                38180081081RUA IZABEL DA SILVA BORGES    None      775 ARESIDENCIAL JARDIM DAS OLIVEIR                                                             
03216564320230570640166963478722512520230405008090301010072707009809854333M310400    02100000102             BPACLARK RENNE DA CONCEICAO SANTO2002052403    010                                38180081081RUA IZABEL DA SILVA BORGES    None      775 ARESIDENCIAL JARDIM DAS OLIVEIR                                                             
03216564320230570640166963478722512520230423008100301010072898002372552882F310400    01800000102             BPAANA BEATRIZ LOPES DE MELO     2004092201    010                                38180081081RUA ARLINDO JOSE DA ROCHA     None      55   DONA BEJA                                                                                  
03216564320230570640166963478722512520230423008110301010072706002342329443M310400    00300000102             BPATHEO MARINGOLO DE FREITAS     2019111501    010                                38180081081RUA CAPITAO IZIDRO            None      926  CENTRO                                                                                     
03216564320230570640166963478722512520230423008120301010072898003470164926M310400    04600000102             BPAADILSON APARECIDO CORREA DE AL1976091301    010                                38180081081RUA CARMEN DE OLIVEIRA LARA   None      135  ENGENHEIRO CLOVIS FREITAS LEAL                                                             
03216564320230570640166963478722512520230423008130301010072704606130230321F310400    02600000102             BPALUIZA FALCO LEMOS NARDI       1996120901    010                                38180081081RUA DAS ACACIAS               None      58   AREA I (CBMM)                                                                              
03216564320230570640166963478722512520230423008140301010072708203694409848F310400    05100000102             BPACRISTINA SILVA                1972010101    010                                38180081081RUA MARIO CAMPOS              None      661  VILA SAO PEDRO                                                                             
03216564320230570640166963478722512520230423008150301010072898005142012099F310400    00600000102             BPAMARIA VITORIA JESUS DE CASTRO 2016102703    010                                38180081081RUA AMERICO AUTRAN            None      97   SAO PEDRO                                                                                  
03216564320230570640166963478722512520230423008160301010072898001182017179M310400    08900000102             BPAHERBERT RADESPIEL             1933101601    010                                38180081081RUA DOS PINHEIROS             None      60   BARREIRO                                                                                   
03216564320230570640166963478722512520230423008170301010072706008805042149F310400    02200000102             BPABARBARA RODRIGUES PEREIRA     2000080301    010                                38180081081RUA DEOLINA OROZINA DE OLIVEIRNone      358  MANGABEIRAS 4                                                                              
03216564320230570640166963478722512520230423008180301010072700005776548106M310400    03000000102             BPADANILO FRANCISCO DOS SANTOS   1992113002    010                                38180081081RUA JOSE VAZ DA SILVA         None      33   SANTO ANTONIO                                                                              
03216564320230570640166963478722512520230423008190301010072161194824080018F310400    02900000102             BPAEDILAINE CRISTINA DA SILVA    1994032903    010                                38180081081RUA IRINEIA ALVES DE PAIVA    None      None VILA ESTANCIA                                                                              
03216564320230570640166963478722512520230423008200301010072700205983374330M310400    07700000102             BPAMARIO EUSTAQUIO FRADE         1945102201    010                                38180081081RUA CONCEICAO CARLOTA         None      90   MANGUEIRA I                                                                                
03216564320230570640166963478722512520230423009010301010072898003909517104M310400    06700000102             BPAFRANCISCO PEREIRA DA SILVA    1955112501    010                                38180081081RUA ANTONIO MAIA RIOS         None      33   ALVORADA                                                                                   
03216564320230570640166963478722512520230423009020301010072707807665768711F310400    04100000102             BPACASSIA CRISTINA FERREIRA      1982033103    010                                38180081081RUA JOAQUIM ALVES DA MOTA     None      190  PADRE ALAOR                                                                                
03216564320230570640166963478722512520230423009030301010072700205983374330M310400    07700000102             BPAMARIO EUSTAQUIO FRADE         1945102201    010                                38180081081RUA CONCEICAO CARLOTA         None      90   MANGUEIRA I                                                                                
03216564320230570640166963478722512520230423009040301010072702807591678470M310400    06100000102             BPAJOSE ANTONIO FELISBERTO       1962061302    010                                38180081081TRAVESSA MANOEL ANTONIO DA SILNone      345  NOVO SANTO ANTONIO                                                                         
03216564320230570640166963478722512520230423009050301010072700205983374330M310400    07700000102             BPAMARIO EUSTAQUIO FRADE         1945102201    010                                38180081081RUA CONCEICAO CARLOTA         None      90   MANGUEIRA I                                                                                
03216564320230570640166963478722512520230423009060301010072707608200859890F310400    00500000102             BPAMARIA ALICE FERREIRA DE ARAUJO2017072403    010                                38180081081RUA TUPI                      None      102  SANTO ANTONIO                                                                              
03216564320230570640166963478722512520230423009070301010072898003447980755F310400    07200000102             BPAMARLI APARECIDA LORENA ROSA   1951062001    010                                38180081081RUA ELZA LEMOS                None      34   VILA SILVERIA                                                                              
03216564320230570640166963478722512520230423009080301010072708203694409848F310400    05100000102             BPACRISTINA SILVA                1972010101    010                                38180081081RUA MARIO CAMPOS              None      661  VILA SAO PEDRO                                                                             
03216564320230570640166963478722512520230423009090301010072700402328623450M310400    07300000102             BPAJOSE DE SOUZA                 1949092701    010                                38180081081RUA JOSE REINALD FILHO        None      65   RECANDO DOS BORQUES                                                                        
03216564320230570640166963478722512520230423009100301010072700201433206229M310400    02400000102             BPAGUILHERME RANGELL SOUZA REIS  1998102201    010                                38180081081RUA SADY PERFEITO             None      270  VILA PADRE ALAOR                                                                           
03216564320230570640166963478722512520230423009110301010072701808297414979F310400    04000000102             BPAGEDALVA DE SOUZA SANTOS       1982072801    010                                38180081081RUA ARGENITA                  None      19/F SANTO ANTONIO                                                                              
03216564320230570640166963478722512520230423009120301010072898003447980755F310400    07200000102             BPAMARLI APARECIDA LORENA ROSA   1951062001    010                                38180081081RUA ELZA LEMOS                None      34   VILA SILVERIA                                                                              
03216564320230570640166963478722512520230423009130301010072898050074101422F310400    02500000102             BPAGABRIELA ALEXIA DA CUNHA FLORE1997121201    010                                38180081081RUA MARCO TULIO ROSA          None      20   JARDIM EUROPA                                                                              
03216564320230570640166963478722512520230423009140301010072700402328623450M310400    07300000102             BPAJOSE DE SOUZA                 1949092701    010                                38180081081RUA JOSE REINALD FILHO        None      65   RECANDO DOS BORQUES                                                                        
03216564320230570640166963478722512520230423009150301010072706002342329443M310400    00300000102             BPATHEO MARINGOLO DE FREITAS     2019111501    010                                38180081081RUA CAPITAO IZIDRO            None      926  CENTRO                                                                                     
03216564320230570240653615062422512520230421010010301010072707004893309430F310400    04900000102             BPASILVANIA DE FATIMA PEREIRA CAN1973112803    010                                38180081081AVENIDA GERALDO PORFIRIO BOTELNone      2575 VILA FERTIZA                                                                               
03216564320230570240653615062422512520230421010020301010072701401633184535F310400    08700000102             BPANADIR AFONSINA DA SILVA       1935102101    010                                38180081081RUA ARGEU ALVES DA COSTA      None      406  VILA SILVERIA                                                                              
03216564320230570240653615062422512520230421010030301010072898050074101422F310400    02500000102             BPAGABRIELA ALEXIA DA CUNHA FLORE1997121201    010                                38180081081RUA MARCO TULIO ROSA          None      20   JARDIM EUROPA                                                                              
03216564320230570240653615062422512520230421010040301010072704701735152030F310400    02300000102             BPAANE CARLA DO PRADO ROCHA      2000022101    010                                38180081081RUA ARGENITA                  None      57   SANTO ANTONIO                                                                              
03216564320230570240653615062422512520230421010050301010072898003908788112F310400    05500000102             BPANEIDE APARECIDA DE OLIVEIRA   1967091001    010                                38180081081RUA ROMEU DE CASTRO ALVES     None      53   VILA SILVERIA                                                                              
03216564320230570240653615062422512520230421010060301010072706500388891997F310400    03000000102             BPAARIANA LOREN DA SILVA         1992090603    010                                38180081081RUA PA-04                     None      110  LOTEAMENTO NOVO PAO DE ACUCAR                                                              
03216564320230570240653615062422512520230421010070301010072705403439725296F310400    06400000102             BPACARMELITA NERES PEREIRA       1958103003    010                                38180081081RUA ANTONIO MAIA RIOS         None      33   ALVORADA                                                                                   
03216564320230570240653615062422512520230421010080301010072898005870152374M310400    00600000102             BPAPEDRO GONCALVES SANTOS        2016102301    010                                38180081081RUA JOSE BARBOSA DE CASTRO    None      323  VILA FERTIZA                                                                               
03216564320230570240653615062422512520230421010090301010072706500388891997F310400    03000000102             BPAARIANA LOREN DA SILVA         1992090603    010                                38180081081RUA PA-04                     None      110  LOTEAMENTO NOVO PAO DE ACUCAR                                                              
03216564320230570240653615062422512520230421010100301010072705403439725296F310400    06400000102             BPACARMELITA NERES PEREIRA       1958103003    010                                38180081081RUA ANTONIO MAIA RIOS         None      33   ALVORADA                                                                                   
03216564320230570240653615062422512520230421010110301010072898004009443881M310400    04500000102             BPAADAILTON DOS SANTOS PINHEIRO  1978021201    010                                38180081081RUA CATIA FERREIRA DE AVILA   None      50   LOTEAMENTO NOVO PAO DE ACUCAR                                                              
03216564320230570240653615062422512520230421010120301010072708605080419584M310400    06900000102             BPAJOAO VALDIR PEREIRA           1953111903    010                                38180081081DALCI SANTOS CUNHA            None      480  DONA BEJA                                                                                  
03216564320230570240653615062422512520230421010130301010072708006316689926F310400    00200000102             BPAMELISSA SOUZA VIEIRA NASCIMENT2020101301    010                                38180081081RUA HELVECIO TADEU VAZ        None      45/A PORTAL DO CAMBURI                                                                          
03216564320230570240653615062422512520230421010140301010072898004621885822M310400    01300000102             BPAGABRIEL SANTOS FIGUEIREDO     2009093001    010                                38180081081RUA AMADOR CARNEIRO DE MELO   None      415  PARQUE DAS MANGABEIRAS                                                                     
03216564320230570240653615062422512520230421010150301010072706507319965398F310400    02600000102             BPASAMANTHA PRISCILLA HELOISA LAM1996072201    010                                38180081081RUA GUARANI                   None      259  SANTO ANTONIO                                                                              
03216564320230570240653615062422512520230421010160301010072708205663361845F310400    00200000102             BPAMAITE SILVA CAVALCANTE        2021040901    010                                38180081081RUA FERREIRA BENFICA          None      305  VILA ESTANCIA                                                                              
03216564320230570240653615062422512520230421011010301010072898003720696849M310400    04500000102             BPAELVIS ALVES DA COSTA          1978012901    010                                38180081081RUA DARIO SOARES              None      263  SANTO ANTONIO                                                                              
03216564320230570240653615062422512520230421011020301010072704701735152030F310400    02300000102             BPAANE CARLA DO PRADO ROCHA      2000022101    010                                38180081081RUA ARGENITA                  None      57   SANTO ANTONIO                                                                              
03216564320230570600732823354422512520230412012010301010072898003475653968F310400    04400000102             BPAJAQUELINE OLIVEIRA DE MOURA   1979052303    010                                38180081081RUA MARIA DE LOURDES DE JESUS None      140  JARDIM DAS PRIMAVERAS                                                                      
03216564320230570600732823354422512520230412012020301010072705009812304954F310400    04500000102             BPAELIDA MARIA ROCHA             1978060101    010                                38180081081RUA PADRE JOSE ZORZAL         None      80   JOSE FERREIRA GUIMARAES (MANGU                                                             
03216564320230570600732823354422512520230412012030301010072704808014005546F310400    00900000102             BPAEMILLY ASHLEY SANTOS DE PAIVA 2014052403    010                                38180081081RUA TERENCIO PEREIRA          None      1698 SANTO ANTONIO                                                                              
03216564320230570600732823354422512520230412012040301010072703006815731773F310400    02500000102             BPABRUNA DO AMARAL FONSECA       1997072603    010                                38180081081RUA EUGELIA DE AVILA RIBEIRO  None      50   LOTEAMENTO MAX NEWMANN                                                                     
03216564320230570600732823354422512520230412012050301010072701001835466594F310400    01200000102             BPAJULYA GABRIELLY PEREIRA       2010113003    010                                38180081081RUA AUGUSTO ALVES             None      505  SERRA MORENA                                                                               
03216564320230570600732823354422512520230412012060301010072898004509757818F310400    01500000102             BPACAROLLINA RODRIGUES DORNELAS V2007090903    010                                38180081081RUA JOSE ALVES DA SILVA       None      215  LOTEAMENTO JARDIM AMERICA                                                                  
03216564320230570600732823354422512520230412012070301010072705005064989151F310400    06700000102             BPAMARIA LAZARA VALERIANA DA SILV1956042301    010                                38180081081RUA VALDEMAR DE SIQUEIRA      None      515 FVILA PADRE ALAOR                                                                           
03216564320230570600732823354422512520230412012080301010072700408935644642M310400    02900000102             BPAGUSTAVO  AUGUSTO FERREIRA MONT1993080201    010                                38180081081AVENIDA PREFEITO ARACELY DE PANone      2745 CENTRO                                                                                     
03216564320230570600732823354422512520230412012090301010072700406144836250M310400    05600000102             BPAANTONIO MARCIO LEMOS          1966110802    010                                38180081081RUA CONCEICAO APARECIDA NUNES None      240  PARQUE DAS MANGABEIRAS                                                                     
03216564320230570600732823354422512520230412012100301010072700606939357970F310400    04500000102             BPAROSILDA HELENA DA SILVA       1978061303    010                                38180081081RUA SANTO ANTONIO             None      2100 SANTO ANTONIO                                                                              
03216564320230570600732823354422512520230412012110301010072700408457919149F310400    04100000102             BPALUCIVANE AFONSO CHAVES        1982022101    010                                38180081081RUA PORTAL VEREDAS            None      45   VEREDAS DA CIDADE                                                                          
03216564320230570600732823354422512520230412012120301010072702603258529448F310400    01300000102             BPAANA CECILIA ALVES RESENDE     2009082603    010                                38180081081RUA JORDELINO JOSE CARNEIRO   None      397  SANTO ANTONIO                                                                              
03216564320230570600732823354422512520230412012130301010072705001248698253M310400    02700000102             BPAMARCILIO SILVA AGUIAR         1995072403    010                                38180081081RUA GUARA                     None      09   SANTO ANTONIO                                                                              
03216564320230570600732823354422512520230412012140301010072704203775468787M310400    01900000102             BPAFELIPE DOS REIS GONCALVES     2004020903    010                                38180081081RUA ANTONIO PEREIRA DOS SANTOSNone      260  VILA ESTANCIA                                                                              
03216564320230570600732823354422512520230412012150301010072705100435620570F310400    05300000102             BPAROSELI GOMES LOPES            1969090503    010                                38180081081RUA ARACY PERFEITO PENELLO    None      430  GUILHERMINA VIEIRA CHAER                                                                   
03216564320230570600732823354422512520230412012160301010072702904535167470M310400    04900000102             BPAJOSE DO CARMO PEREIRA LOPES   1974031903    010                                38180081081RUA ARACY PERFEITO PENELLO    None      430  GUILHERMINA VIEIRA CHAER                                                                   
03216564320230570600732823354422512520230412012170301010072707401082107679F310400    06000000102             BPALUCIA HELENA COUTINHO         1963043003    010                                38180081081RUA LELIO ROBERTO GUIMARAES   None      55   CINCINATO DE AVILA                                                                         
03216564320230570600732823354422512520230412012180301010072706907192696531M310400    01800000102             BPABERNARDO JOAQUIM FERRAZ SANTOS2005042101    010                                38180081081RUA DO OURO                   None      48   SAO CRISTOVAO                                                                              
03216564320230570600732823354422512520230412012190301010072706203596000566F310400    06800000102             BPAIARA MARIA JACOB              1954122101    010                                38180081081RUA BENTO ANTONIO             None      46   VILA SAO PEDRO                                                                             
03216564320230570600732823354422512520230412012200301010072898001963140127F310400    06000000102             BPAANA CRISTINA SILVA            1962082603    010                                38180081081RUA TERENCIO PEREIRA          None      2046 SANTO ANTONIO                                                                              
03216564320230570600732823354422512520230412013010301010072704105110773579M310400    03900000102             BPALUCIANO BATISTA               1983081403    010                                38180081081RUA LAZARO NARCIS DE OLIVEIRA None      120  MANGABEIRAS V                                                                              
03216564320230570600732823354422512520230412013020301010072898003034445999F310400    02400000102             BPATHAIS APARECIDA BENTO         1998121003    010                                38180081081RUA DULCE MASCARENHAS TORRES  None      159  VILA SILVERIA                                                                              
03216564320230570600732823354422512520230412013030301010072702205167438410M310400    03800000102             BPALEANDRO LANDIM DE SOUZA       1984103103    010                                38180081081RUA ANIBAL FRACISCO DA SILVA  None      85   MANGABEIRA 3                                                                               
03216564320230570600732823354422512520230412013040301010072700006296112208F310400    04100000102             BPADANIELA APARECIDA DAS NEVES   1981071603    010                                38180081081RUA EDUARDO DE SOUZA FILHO    None      260  VILA SILVERIA                                                                              
03216564320230570600732823354422512520230412013050301010072898004626169432F310400    01300000102             BPAMELISSA GUIMARAES DORNELAS FIQ2009110403    010                                38180081081RUA FRANCISCO VERCOSA         None      100  VILA SILVERIA                                                                              
03216564320230570600732823354422512520230412013060301010072705001860843250F310400    03500000102             BPAANA FLAVIA MACHADO            1988052901    010                                38180081081RUA ANTONIO PEREIRA DOS SANTOSNone      35   VILA ESTANCIA                                                                              
03216564320230570600732823354422512520230412013070301010072705001860843250F310400    03500000102             BPAANA FLAVIA MACHADO            1988052901    010                                38180081081RUA ANTONIO PEREIRA DOS SANTOSNone      35   VILA ESTANCIA                                                                              
03216564320230570600732823354422512520230412013080301010072702901576713779M310400    05400000102             BPACICERO SA DOS SANTOS          1968121503    010                                38180081081RUA DO OURO                   None      66 FUCENTRO                                                                                     
03216564320230570600732823354422512520230412013090301010072703401224332518M310400    06400000102             BPAJOSE RONAN XAVIER             1959010203    010                                38180081081RUA SANTO ANTONIO             None      1103 SANTO ANTONIO                                                                              
03216564320230570600732823354422512520230412013100301010072706405602394885M310400    02400000102             BPAARTHUR MARCELO SILVA          1998110603    010                                38180081081RUA ALCINO ROSA DOS SANTOS    None      205  SANTA RITA                                                                                 
03216564320230570600732823354422512520230412013110301010072898004510458209F310400    04100000102             BPAMAURA LUCIA ALVES             1981081003    010                                38180081081RUA CARMELITA FELICIANO DOS SANone      185  LOTEAMENTO MAX NEWMANN                                                                     
03216564320230570600732823354422512520230412013120301010072898050080415581M310400    01800000102             BPAEDUARDO SILVA REIS            2004081703    010                                38180081081RUA IPIAO                     None      110 ACENTRO                                                                                     
03216564320230570600732823354422512520230412013130301010072898004510458209F310400    04100000102             BPAMAURA LUCIA ALVES             1981081003    010                                38180081081RUA CARMELITA FELICIANO DOS SANone      185  LOTEAMENTO MAX NEWMANN                                                                     
03216564320230570600732823354422512520230412013140301010072898001963140127F310400    06000000102             BPAANA CRISTINA SILVA            1962082603    010                                38180081081RUA TERENCIO PEREIRA          None      2046 SANTO ANTONIO                                                                              
03216564320230570600732823354422512520230412013150301010072700209419231626M310400    03500000102             BPAFABIANO SANTOS                1988011503    010                                38180081081RUA PERITO EDSON ZAMBROT      None      245  DONA ADELIA II                                                                             
03216564320230570600732823354422512520230412013160301010072704004827170360F310400    03400000102             BPAJOICE VIEIRA CHAVES           1989050503    010                                38180081081RUA CINCO                     None      50   LOTEAMENTO FENICIA                                                                         
03216564320230570600732823354422512520230412013170301010072706506367444296M310400    03600000102             BPAADENILSO MONTEIRO DE OLIVEIRA 1987061403    010                                38180081081RUA ONZE                      None      85   LOTEAMENTO MAX NEWMANN                                                                     
03216564320230570600732823354422512520230412013180301010072706506367444296M310400    03600000102             BPAADENILSO MONTEIRO DE OLIVEIRA 1987061403    010                                38180081081RUA ONZE                      None      85   LOTEAMENTO MAX NEWMANN                                                                     
03216564320230570600732823354422512520230412013190301010072707608253863493F310400    06600000102             BPAIVONETE ALMIDIA BORGES        1957050501    010                                38180081081RUA EVARISTO SILVA            None      130  DOUTOR PEDRO PEZZUTI                                                                       
03216564320230570600732823354422512520230412013200301010072705409455721998F310400    01500000102             BPAEMILY EDUARDA BORGES          2007091901    010                                38180081081RUA JAIR JOSE PEREIRA         None      90 A DONA ADELIA                                                                                
03216564320230570600732823354422512520230412014010301010072898003962178017M310400    01800000102             BPALEONARDO DIAS RAMOS DE OLIVEIR2004080401    010                                38180081081RUA PAULA CECILIA DOS SANTOS  None      520  PARQUE DAS MANGABEIRAS                                                                     
03216564320230570600732823354422512520230412014020301010072700501992885559F310400    02200000102             BPAJANICLEIA SANTOS CARDOSO      2001031103    010                                38180081081RUA ARGENTINA DE OLIVEIRA FERRNone      351  FERTIZA                                                                                    
03216564320230570600732823354422512520230426014030301010072702700121198760F310400    01000000102             BPAISADORA GUEDES BONFA          2012070801    010                                38180081081RUA AMADOR CARNEIRO DE MELO   None      245 BPARQUE DAS MANGABEIRAS                                                                     
03216564320230570600732823354422512520230426014040301010072706909152966637F310400    02400000102             BPAMARIA EDUARDA REZENDE SALLES P1998122701    010                                38180081081RUA JUSCELINO KUBITSCHEK      None      145  JARDIM DAS PRIMAVERAS                                                                      
03216564320230570600732823354422512520230426014050301010072704200763721080F310400    03800000102             BPALIVIA FLAVIA GUEDES SILVA     1984101703    010                                38180081081RUA AMADOR CARNEIRO DE MELO   None      245 BPARQUE DAS MANGABEIRAS                                                                     
03216564320230570600732823354422512520230426014060301010072898003236289246F310400    03300000102             BPAELIVANIA APARECIDA MOTA       1990050101    010                                38180081081RUA LAZARO CAIXETA            None      75   NOVO SAO GERALDO                                                                           
03216564320230570600732823354422512520230426014070301010072898004928888792F310400    01900000102             BPABRENDA MARIA OLIVEIRA SOUZA GO2003080601    010                                38180081081RUA ROSSINI RODRIGUES DUARTE  None      685  CONJUNTO HABITACIONAL BOA VIST                                                             
03216564320230570600732823354422512520230426014080301010072898004928888792F310400    01900000102             BPABRENDA MARIA OLIVEIRA SOUZA GO2003080601    010                                38180081081RUA ROSSINI RODRIGUES DUARTE  None      685  CONJUNTO HABITACIONAL BOA VIST                                                             
03216564320230570600732823354422512520230426014090301010072898002901082337F310400    02200000102             BPAJALINE BETANIA DA SILVA       2000112203    010                                38180081081AVENIDA PREFEITO ARACELY DE PANone      185  CENTRO                                                                                     
03216564320230570600732823354422512520230426014100301010072898004106784523F310400    06800000102             BPAZENAIDE VIEIRA DE LIMA        1954073103    010                                38180081081RUA JOSE RIBEIRO              None      260  VILA PADRE ALAOR                                                                           
03216564320230570600732823354422512520230426014110301010072708101589898434F310400    02100000102             BPALIVIANNE BISPO DE PAULA       2001091803    010                                38180081081RUA JUCA GONCALVES            None      430  SANTO ANTONIO                                                                              
03216564320230570600732823354422512520230426014120301010072898005895469096F310400    00400000102             BPAGEOVANA HELOISA RIBEIRO MARTIN2018100601    010                                38180081081RUA ERMINDA SOARES DE LOURDES None      517  TIRADENTES                                                                                 
03216564320230570600732823354422512520230426014130301010072708604576347785F310400    02600000102             BPATHAYNA STEFANIE DOS SANTOS    1997012401    010                                38180081081RUA VEREADOR JOSE ROSINHA     None      120  JARDIM DAS PRIMAVERAS                                                                      
03216564320230570600732823354422512520230426014140301010072898004935085098F310400    04800000102             BPALUCIANA MARTINS DOS SANTOS    1975062601    010                                38180081081RUA AFONSINA BORGES VIEIRA    None      22   ALVORADA                                                                                   
03216564320230570600732823354422512520230426014150301010072704803062288841M310400    07200000102             BPAJOSE EDUARDO BORGES           1950082201    010                                38180081081RUA GIL RODRIGUES             None      110  VILA SANTA TEREZINHA                                                                       
03216564320230570600732823354422512520230426014160301010072898004935085098F310400    04800000102             BPALUCIANA MARTINS DOS SANTOS    1975062601    010                                38180081081RUA AFONSINA BORGES VIEIRA    None      22   ALVORADA                                                                                   
03216564320230570600732823354422512520230426014170301010072702505329851137F310400    05500000102             BPALUCIA MARIA E SILVA           1967101801    010                                38180081081RUA ENGENHEIRO PEDRO RIOS     None      136  DOUTOR PEDRO PEZZUTI                                                                       
03216564320230570600732823354422512520230426014180301010072898005146288331F310400    00800000102             BPAMARIA CECILIA SILVA BARRETO   2015042403    010                                38180081081RUA DORVALINO PEREIRA BORGES  None      343  DOUTOR PEDRO PEZZUTI                                                                       
03216564320230570600732823354422512520230426014190301010072898002373944873M310400    01700000102             BPAJOSE LUIZ MACIEL NETO         2006040301    010                                38180081081RUA JOSE RIBEIRO              None      270  VILA PADRE ALAOR                                                                           
03216564320230570600732823354422512520230426014200301010072703201642714590F310400    04200000102             BPAGRAZIELA RIBEIRO MONTEIRO     1981030503    010                                38180081081RUA ORCALINO JOSE CARNEIRO    None      365  CONJUNTO HABITACIONAL PAO DE A                                                             
03216564320230570600732823354422512520230426015010301010072703408191639500F310400    02100000102             BPALIDIA SILVA TEIXEIRA MARIANO  2001071601    010                                38180081081AVENIDA JOAQUIM PORFIRIO BOTELNone      245  MANGUEIRA I                                                                                
03216564320230570600732823354422512520230426015020301010072898003273466768F310400    01600000102             BPAMARIA HELOIZA BORGES ANTUNES  2006072001    010                                38180081081RUA SARGENTO JACINTO DA SILVA None      182  DOUTOR PEDRO PEZZUTI                                                                       
03216564320230570600732823354422512520230426015030301010072703201642714590F310400    04200000102             BPAGRAZIELA RIBEIRO MONTEIRO     1981030503    010                                38180081081RUA ORCALINO JOSE CARNEIRO    None      365  CONJUNTO HABITACIONAL PAO DE A                                                             
03216564320230570600732823354422512520230426015040301010072898005163355092M310400    02000000102             BPAARTHUR GARCIA RIBEIRO         2003061601    010                                38180081081RUA BELO HORIZONTE            None      1110 CENTRO                                                                                     
03216564320230570600732823354422512520230426015050301010072898005920477964F310400    00300000102             BPAIRINA HELENA MARIA DA SILVA   2019082201    010                                38180081081RUA JAIR ALVES RIBEIRO        None      135  CONJUNTO HABITACIONAL BOA VIST                                                             
03216564320230570600732823354422512520230426015060301010072700007876395206M310400    02300000102             BPASILVIO HENRIQUE BATISTA CORREI2000042603    010                                38180081081RUA JORGE AKEL                None      70   VILA SILVERIA                                                                              
03216564320230570600732823354422512520230426015070301010072898002725519669F310400    01800000102             BPAMARIA FERNANDA SILVA          2004110601    010                                38180081081RUA MARIA DOS ANJOS DA CUNHA  None      20B  PARQUE DAS MANGABEIRAS                                                                     
03216564320230570600732823354422512520230426015080301010072709600659187674M310400    01500000102             BPAGUILHERME CASTRO GUIMARAES    2007101501    010                                38180081081RUA PADRE LEAO                None      44   CENTRO                                                                                     
03216564320230570600732823354422512520230426015090301010072700901947331899M310400    02400000102             BPADENER DE CARVALHO LIMA        1998090301    010                                38180081081RUA OSWALDO TEIXEIRA VALLE    None      35   LOTEAMENTO RESIDENCIAL SOLARIS                                                             
03216564320230570600732823354422512520230426015100301010072706800137067530F310400    05600000102             BPAVANIA MARCIA GOMES COURA      1966102601    010                                38180081081RUA FERREIRA BENFICA          None      335  VILA ESTANCIA                                                                              
03216564320230570600732823354422512520230426015110301010072707007801600233M310400    06300000102             BPAWALTER BATISTA CARNEIRO       1959121903    010                                38180081081RUA JAIR IVAN DA SILVA        None      None JARDIM RESIDENCIAL BELA VISTA                                                              
03216564320230570600732823354422512520230426015120301010072801434159715120F310400    04500000102             BPAELIANA BENEDITA DA CRUZ       1977112701    010                                38180081081RUA GUARANI                   None      300  SANTO ANTONIO                                                                              
03216564320230570600732823354422512520230426015130301010072702306065941520F310400    01600000102             BPALUIZA AMANCIO PEREIRA AMORIM  2007030303    010                                38180081081RUA SANTO ANTONIO             None      1970 SANTO ANTONIO                                                                              
03216564320230570600732823354422512520230426015140301010072898004195118737F310400    01700000102             BPAGRACIENE CARLOS DOS REIS      2005082603    010                                38180081081FAZENDA TRIANGULO             None      None None                                                                                       
03216564320230570600732823354422512520230426015150301010072709605612023475M310400    03000000102             BPAMATEUS DESIDEIRO RIOS         1993050701    010                                38180081081RUA FREDERICO OZANAN          None      148  NOVO SANTO ANTONIO                                                                         
03216564320230570600732823354422512520230426015160301010072898006235138999M310400    00200000102             BPACHRISTOPHER RAMOS DENIZ       2021052801    010                                38180081081RUA HOLANDA                   None      45 B NOVO HORIZONTE                                                                             
03216564320230570600732823354422512520230426015170301010072898004150365425M310400    00900000102             BPAPIETRO ALEXANDRE RAMOS ROSA   2014031301    010                                38180081081RUA HOLANDA                   None      45 B NOVO HORIZONTE                                                                             
03216564320230570600732823354422512520230426015180301010072898005152802866F310400    00600000102             BPAIZADORA KAROLINE SILVA DE OLIV2017021001    010                                38180081081RUA LAZARO DE RESENDE         None      145  RESIDENCIAL CAMUA                                                                          
03216564320230570600732823354422512520230426015190301010072705603431239811M310400    04200000102             BPAFABIANO FERNANDO DE ALMEIDA   1980081403    010                                38180081081RUA GUARANI                   None      390  SANTO ANTONIO                                                                              
03216564320230570600732823354422512520230426015200301010072898006226156769F310400    00200000102             BPAANNA JULIA DO AMARAL          2020110903    010                                38180081081RUA JOSE DE AVILA             None      23   ANA ANTONIA                                                                                
03216564320230570600732823354422512520230426016010301010072704308503576494F310400    01800000102             BPAANA KAROLINE CLEMENTE MATOS   2005012203    010                                38180081081RUA TULINHO MANEIRA           None      160  PORTAL DO CAMBURI                                                                          
03216564320230570600732823354422512520230426016020301010072706008805042149F310400    02200000102             BPABARBARA RODRIGUES PEREIRA     2000080301    010                                38180081081RUA DEOLINA OROZINA DE OLIVEIRNone      358  MANGABEIRAS 4                                                                              
03216564320230570600732823354422512520230426016030301010072898000021607240F310400    07300000102             BPAANA AUGUSTA DA SILVA MARGARIDA1950031401    010                                38180081081RUA PEDRO BRUNO DOS REIS      None      378  SANTO ANTONIO                                                                              
03216564320230570600732823354422512520230426016040301010072898003225012868F310400    03500000102             BPAAMANDA EMANUELLE MENDES DIAS  1987102203    010                                38180081081RUA SARGENTO GISLEI OLIVEIRA RNone      750  LOTEAMENTO NOVO PAO DE ACUCAR                                                              
03216564320230570600732823354422512520230426016050301010072704308503576494F310400    01800000102             BPAANA KAROLINE CLEMENTE MATOS   2005012203    010                                38180081081RUA TULINHO MANEIRA           None      160  PORTAL DO CAMBURI                                                                          
03216564320230570600732823354422512520230426017010301010072898003482958329F310400    02900000102             BPADANIELLE MARQUES DOS SANTOS   1993102401    010                                38180081081RUA SEBASTIAO LUIZ ALVES      None      290  VEREDAS BELVEDERE                                                                          
03216564320230570600732823354422512520230426017020301010072700000986902300F310400    04600000102             BPAFABIOLA ALESSANDRA DA SILVA   1976082901    010                                38180081081RUA TERENCIO PEREIRA          None      552 FSANTO ANTONIO                                                                              
03216564320230570600732823354422512520230426017030301010072700503998899960M310400    02100000102             BPAPEDRO LUCAS DA SILVA BORGES   2001080903    010                                38180081081RUA ALTAIR DUMONT             None      515  SANTO ANTONIO                                                                              
03216564320230570600732823354422512520230426017040301010072704308525244591F310400    02500000102             BPAANA CLARA ROCHA               1997102401    010                                38180081081RUA OSVALDO ALVARO DA SILVA   None      750  VILA ESTANCIA                                                                              
03216564320230570600732823354422512520230426017050301010072898004071115698F310400    02500000102             BPAWHANI GABRIELE PEREIRA        1997122002    010                                38180081081RUA MARIA BENEDITA DE OLIVEIRANone      135  JOSE FERREIRA GUIMARAES (MANGU                                                             
03216564320230570600732823354422512520230426017060301010072700000986902300F310400    04600000102             BPAFABIOLA ALESSANDRA DA SILVA   1976082901    010                                38180081081RUA TERENCIO PEREIRA          None      552 FSANTO ANTONIO                                                                              
03216564320230570600732823354422512520230426017070301010072705409424067994M310400    05100000102             BPADIONE JOSE DE OLIVEIRA        1972031203    010                                38180081081RUA ANDRE ALVES BARCELOS      None      310  GUILHERMINA VIEIRA CHAER                                                                   
03216564320230570600732823354422512520230426017080301010072898004803636917M310400    00800000102             BPAYURI TARDELLI BARBOSA         2015053003    010                                38180081081RUA JOSE HONORATO BORGES      None      270  PARQUE DAS MANGABEIRAS                                                                     
03216564320230570600732823354422512520230426017090301010072707802654483910M310400    00300000102             BPAAUGUSTO DE OLIVEIRA CARDOSO   2019120703    010                                38180081081RUA ANTONIO DIMAS             None      541  ALVORADA                                                                                   
03216564320230570600732823354422512520230428017100301010072709006809180514F310400    03500000102             BPAJUNIA CRISTINA TEIXEIRA       1987081801    010                                38180081081RUA CLARA MARIA DE JESUS      None      60   VEREDAS DA CIDADE                                                                          
03216564320230570600732823354422512520230428017110301010072898004162411729M310400    05800000102             BPAJOSE INACIO LUCAS             1965061903    010                                38180081081RUA JOSE VAZ DA SILVA         None      623  SANTO ANTONIO                                                                              
03216564320230570600732823354422512520230428017120301010072898003463231141M310400    04500000102             BPAMARCELO ROBERTO PAULINO       1977100301    010                                38180081081RUA IDELCIO JOSE RUFINO       None      585  PARQUE DAS MANGABEIRAS                                                                     
03216564320230570600732823354422512520230428017130301010072898003208002175M310400    01200000102             BPAJOAO GABRIEL LEONILDO DE OLIVE2010080602    010                                38180081081RUA WALTER FERNANDES VIEIRA   None      20   ARASOL                                                                                     
03216564320230570600732823354422512520230428017140301010072704109147772472F310400    02000000102             BPAKAMILLA ALVES DOS REIS        2003021801    010                                38180081081RUA JOSE PEREIRA VALLE        None      210  NOVO SANTO ANTONIO                                                                         
03216564320230570600732823354422512520230428017150301010072705605466045810F310400    02200000102             BPACAMILA JUNQUEIRA CULPI        2001061101    010                                38180081081RUA IRINEIA ALVES DE PAIVA    None      171  VILA ESTANCIA                                                                              
03216564320230570600732823354422512520230428017160301010072705408493532799M310400    05900000102             BPAJOSE DOS REIS SILVA           1964010601    010                                38180081081RUA TERENCIO PEREIRA          None      2276 SANTO ANTONIO                                                                              
03216564320230570600732823354422512520230428017170301010072898001015510770F310400    02300000102             BPADINA DA SILVA  LUIZ           1999110502    010                                38180081081RUA TERENCIO PEREIRA          None      542  SANTO ANTONIO                                                                              
03216564320230570600732823354422512520230428017180301010072702407326760230F310400    01700000102             BPAANA BEATRIZ DE OLIVEIRA SANTOS2005101803    010                                38180081081RUA DOMINGOS JOSE DA CRUZ     None      55   VILA FERTIZA                                                                               
03216564320230570600732823354422512520230428017190301010072706208041103768F310400    04800000102             BPACIRLEI LUCIANA VICENTE        1975020103    010                                38180081081RUA ANTONIO PEREIRA DOS SANTOSNone      247  VILA ESTANCIA                                                                              
03216564320230570600732823354422512520230428017200301010072700002259733403F310400    03300000102             BPAJULIANA ROSA BARRETO SILVA    1990020401    010                                38180081081RUA JOAQUIM GERALDO FILHO     None      977  OROZINO TEIXEIRA                                                                           
03216564320230570600732823354422512520230428018010301010072706301773659570F310400    00600000102             BPAMELINA MINEIRO COTA DA SILVA  2017042701    010                                38180081081RUA SAO LUIZ                  None      89   OROZINO TEIXEIRA                                                                           
03216564320230570600732823354422512520230428018020301010072708002364851025F310400    05600000102             BPASANDRA BEATRIZ DE AVILA GUIMAR1966071001    010                                38180081081RUA CONEGO CASSIANO           None      133  CENTRO                                                                                     
03216564320230570600732823354422512520230428018030301010072704002390343764M310400    04900000102             BPAJOSE CARLOS ALVES             1974061701    010                                38180081081RUA EUSTOGIO PINHEIRO         None      90   VILA ESTANCIA                                                                              
03216564320230570600732823354422512520230428018040301010072898003208002175M310400    01200000102             BPAJOAO GABRIEL LEONILDO DE OLIVE2010080602    010                                38180081081RUA WALTER FERNANDES VIEIRA   None      20   ARASOL                                                                                     
03216564320230570600732823354422512520230428018050301010072898003441997389F310400    01600000102             BPAPYETRA MATEUS ALVES           2007011901    010                                38180081081RUA EUSTOGIO PINHEIRO         None      90   VILA ESTANCIA                                                                              
03216564320230570600732823354422512520230428018060301010072709605697535271F310400    01700000102             BPAGEOVANA DE LIMA ROZETTE       2005112101    010                                38180081081RUA JOAQUIM TEODORO DA SILVA  None      391  VILA FERTIZA                                                                               
03216564320230570600732823354422512520230428018070301010072898001015510770F310400    02300000102             BPADINA DA SILVA  LUIZ           1999110502    010                                38180081081RUA TERENCIO PEREIRA          None      542  SANTO ANTONIO                                                                              
03216564320230570600732823354422512520230428018080301010072705004084058152M310400    02400000102             BPAOSVALDO LIMA DOS SANTOS       1999051303    010                                38180081081RUA VIRGILIO DE ABREU         None      286  CENTRO                                                                                     
03216564320230570600732823354422512520230428018090301010072701405687678033F310400    02600000102             BPAFRANCIELLY JULIAN EUGENIO ROSA1996121401    010                                38180081081RUA SEBASTIAO MOREIRA         None      465 BPARQUE DAS MANGABEIRAS                                                                     
03216564320230570600732823354422512520230428018100301010072702508395721435M310400    02000000102             BPAJOAO VICTOR OTONI TEXEIRA     2002082003    010                                38180081081RUA DO GARIMPO                None      266  CENTRO                                                                                     
03216564320230570600732823354422512520230428018110301010072709806063991698F310400    00300000102             BPAVALENTINA ANDRADE FARIA ABREU 2019121701    010                                38180081081RUA DOM JOSE GASPAR           None      361  CENTRO                                                                                     
03216564320230570600732823354422512520230428018120301010072703009859625572F310400    03200000102             BPALORENA CINTIA DE MELO         1990122101    010                                38180081081RUA EVARISTO SILVA            None      38   DOUTOR PEDRO PEZZUTI                                                                       
03216564320230570600732823354422512520230428018130301010072701405687678033F310400    02600000102             BPAFRANCIELLY JULIAN EUGENIO ROSA1996121401    010                                38180081081RUA SEBASTIAO MOREIRA         None      465 BPARQUE DAS MANGABEIRAS                                                                     
03216564320230570600732823354422512520230428018140301010072702807605411166F310400    04900000102             BPAMONICA ABADIA ANDRADE DA TRIND1973072401    010                                38180081081RUA VIRGILIO DE ABREU         None      380  CENTRO                                                                                     
03216564320230570600732823354422512520230428018150301010072898003434827104F310400    01600000102             BPAESTER MARIANE GONCALVES RAMOS 2006121603    010                                38180081081RUA SANTO ANTONIO             None      20035SANTO ANTONIO                                                                              
03216564320230570600732823354422512520230428018160301010072898005829815364F310400    01400000102             BPASHARA CRISTINE GOMES SANTOS   2009033003    010                                38180081081RUA CARMEN DE OLIVEIRA LARA   None      80   ENGENHEIRO CLOVIS FREITAS LEAL                                                             
