01#BPA#2023050016800000501136SECRETARIA DE SAUDE           31040018140756000100CRISTIANE GONCAVES PEREIRA              M3.01      
03216555420230570640166963478722512520230424001010301010072898003464398813M310400    04600000102             BPAJOSE EURIPEDES DA SILVA       1977052503    010                                38180081081VICENTE ALVES BARCELOS        None      145  BOM JESUS                                                                                  
03216555420230570640166963478722512520230424001020301010072703404200379819M310400    06200000102             BPANEWTON JOSE TEIXEIRA          1960091001    010                                38180081081RUA EDMO MESQUITA             None      175  SANTA MONICA                                                                               
03216555420230570640166963478722512520230424001030301010072709501624679270F310400    00100000102             BPALUARA FARIA OLIVEIRA          2021120803    010                                38180081081MARIO EDUARDO BRILHANTE       None      30   AEROPORTO                                                                                  
03216555420230570640166963478722512520230424001040301010072705601435910915F310400    01500000102             BPATALITA APARECIDA NUNES DA SILV2007071201    010                                38180081081PETRONIO MARCHIORIA           None      25   MAX NEUMAN                                                                                 
03216555420230570640166963478722512520230424001050301010072705601435910915F310400    01500000102             BPATALITA APARECIDA NUNES DA SILV2007071201    010                                38180081081PETRONIO MARCHIORIA           None      25   MAX NEUMAN                                                                                 
03216555420230570240653615062422512520230404002010301010072700001882841306F310400    04200000102             BPAISABEL CRISTINA PERES DA SILVA1981062301    010                                38180081081RUA JOAO AUGUSTO DA SILVA     None      300  LOTEAMENTO NOVO PAO DE ACUCAR                                                              
03216555420230570240653615062422512520230404002020301010072898005867632026M310400    01400000102             BPAMARCOS CAUAN DE ANDRADE MARICO2009041601    010                                38180081081RUA ARY JOSE DA SILVA         None      200  AEROPORTO                                                                                  
03216555420230570240653615062422512520230404002030301010072898006291655863F310400    00100000102             BPASOPHIA ELOA CARDOSO DE ALMEIDA2022060702    010                                38180081081JOAO AUGUSTO DA SILVA         None      185 BNOVO PAO DE ACUCAR                                                                         
03216555420230570240653615062422512520230404002040301010072706805280210125M310400    07100000102             BPAJOSE ANTONIO MARTINS          1952020603    010                                38180081081RUA PEPURURE                  None      347  VILA RICA                                                                                  
03216555420230570240653615062422512520230404002050301010072706003395352343F310400    02000000102             BPAMARIANA CAROLAINE RODRIGUES VI2003053003    010                                38180081081RUA FRANCISCO MATIAS FILHO    None      355  URCIANO LEMOS                                                                              
03216555420230570240653615062422512520230404002060301010072898006304269368M310400    02000000102             BPARIAN GUSTAVO DA CUNHA CAVALCAN2002100301    010                                38180081081AVENIDA ANTONIO AFONSO VALE   None      510  None                                                                                       
03216555420230570240653615062422512520230404002070301010072898003472814898M310400    02800000102             BPAJOAO PEDRO SANTOS             1995011003    010                                38180081081RUA FRANCISCO MATIAS FILHO    None      355  URCIANO LEMOS                                                                              
03216555420230570240653615062422512520230404002080301010072702806174216164M310400    04400000102             BPAJACO SOUSA LANDIM             1978101003    010                                38180081081RUA JOAO DE BARRO             None      510  JOAO BOSCO TEIXEIRA                                                                        
03216555420230570240653615062422512520230404002090301010072705009011479055F310400    03600000102             BPALEIDIANE CRISTINA SILVA DOS SA1986090903    010                                38180081081EUCLIDES FERREIRA DA COSTA    None      32   BOA VISTA                                                                                  
03216555420230570240653615062422512520230404002100301010072703208689532592F310400    04100000102             BPAJANETE HELENA MELCHIOR        1981082703    010                                38180081081JOAQUIM GERALDO FILHO         None      1129 OROZINO TEIXEIRA                                                                           
03216555420230570240653615062422512520230404002110301010072898003459114721F310400    04600000102             BPANEUSA RODRIGUESDOS SANTOS     1976080601    010                                38180081081RUA ANTONIO AUGUSTO NETO      None      165  PAO DE ACUCAR 4                                                                            
03216555420230570240653615062422512520230404002120301010072700609963628361M310400    05500000102             BPAUILTON CARVALHO DE OLIVEIRA   1968020501    010                                38180081081PREFEITO ARACELY DE PAULA     None      1445 CENTRO                                                                                     
03216555420230570240653615062422512520230404002130301010072700308489059340M310400    03000000102             BPADIOGENES FRANCISCO DE ALENCAR 1993040403    010                                38180081081RUA ABDANUR ELIAS             None      330  VILA SAO PEDRO                                                                             
03216555420230570240653615062422512520230404002140301010072706001397025941F310400    02600000102             BPAREGIANE ALVES DOS SANTOS      1997022403    010                                38180081081DEVEID ROBERTO DE REZENDE     None      450  ANA PINTO DE ALMEIDA                                                                       
03216555420230570240653615062422512520230411002150301010072706007382116143F310400    03000000102             BPAADENISIA DE OLIVEIRA          1993061603    010                                38180081081RUA ANTONIO FREITAS           None      50   SANTA MONICA                                                                               
03216555420230570240653615062422512520230411002160301010072702407538396923M310400    03700000102             BPALAUANIO ROSA DE OLIVEIRA      1986022703    010                                38180081081RUA ANTONIO FREITAS           None      365  SANTA MONICA                                                                               
03216555420230570240653615062422512520230411002170301010072702407538396923M310400    03700000102             BPALAUANIO ROSA DE OLIVEIRA      1986022703    010                                38180081081RUA ANTONIO FREITAS           None      365  SANTA MONICA                                                                               
03216555420230570240653615062422512520230411002180301010072701107371535180M310400    07000000102             BPAJAIRO FERREIRA BORGES         1952120501    010                                38180081081RUA JOAQUIM ALVES FERREIRA    None      20   URCIANO LEMOS                                                                              
03216555420230570240653615062422512520230411002190301010072700209968076220F310400    03700000102             BPAANA CAROLINA RODRIGUES SILVA  1985112503    010                                38180081081RUA JOAQUIM ALVES FERREIRA    None      300  URCIANO LEMOS                                                                              
03216555420230570240653615062422512520230411002200301010072706706504919310F310400    00200000102             BPAMAYARA SILVA RAMOS            2020090101    010                                38180081081AVENIDA NELCINA MARIA DE JESUSNone      415  DOMINGOS ZEMA                                                                              
03216555420230570240653615062422512520230411003010301010072898003955668268F310400    01700000102             BPALARISSA KIMBERLY SILVA        2006042303    010                                38180081081RUA LAZARO SEVERINO GOMES     None      45   LOTEAMENTO NOVO PAO DE ACUCAR                                                              
03216555420230570240653615062422512520230411003020301010072898003916276982F310400    02000000102             BPAJULIA CAROLINA  TORQUATO MENDE2003020101    010                                38180081081RUA MARIA DO DESTERRO DA CONCENone      65   RESIDENCIAL JARDIM DAS OLIVEIR                                                             
03216555420230570240653615062422512520230411003030301010072703500010989530F310400    03400000102             BPALEIDIMAR ABADIA DA SILVA      1989041801    010                                38180081081RUA CASSIANO LEMOS FILHO      None      205  LOTEAMENTO FENICIA                                                                         
03216555420230570240653615062422512520230411003040301010072898000595728903M310400    08200000102             BPAJOAO ONOFRE DA SILVA          1941032502    010                                38180081081RUA JUCA CANCIO               None      340  URCIANO LEMOS                                                                              
03216555420230570240653615062422512520230411003050301010072701107371535180M310400    07000000102             BPAJAIRO FERREIRA BORGES         1952120501    010                                38180081081RUA JOAQUIM ALVES FERREIRA    None      20   URCIANO LEMOS                                                                              
03216555420230570240653615062422512520230411003060301010072706005370990445F310400    04100000102             BPAMIRIAN RODRIGUES              1982011802    010                                38180081081ERMOGENE DE PAULA NASCIMENTP  None      30   ANA PINTO DE ALMEIDA                                                                       
03216555420230570240653615062422512520230411003070301010072706005370990445F310400    04100000102             BPAMIRIAN RODRIGUES              1982011802    010                                38180081081ERMOGENE DE PAULA NASCIMENTP  None      30   ANA PINTO DE ALMEIDA                                                                       
03216555420230570240653615062422512520230426003080301010072706002864742547F310400    03500000102             BPAANA PAULA FERREIRA DE JESUS   1987071703    010                                38180081081RUA JOAQUIM ALVES FERREIRA    None      140  URCIANO LEMOS                                                                              
03216555420230570240653615062422512520230426003090301010072706809133046030M310400    04800000102             BPAJOSANIEL GAMA MENDES          1974093003    010                                38180081081RUA WASHINGTON BARCELOS       None      0    POR DO SOL                                                                                 
03216555420230570240653615062422512520230426003100301010072706206505270967M310400    07000000102             BPABALTAZAR JOSE DOS REIS        1953050403    010                                38180081081RUA JOSE PRIMO DE MELO        None      161  CENTRO                                                                                     
03216555420230570240653615062422512520230426003110301010072898003306205313F310400    02800000102             BPALUANA DE OLIVEIRA             1994071301    010                                38180081081RUA JOSE GOMES PEREIRA        None      85   SAO FRANCISCO                                                                              
03216555420230570240653615062422512520230426003120301010072898004819761422M310400    00700000102             BPAJHONATA KAUE SIRQUEIRA DA SILV2015072703    010                                38180081081RUA ODETE CAMPOS REIS         None      75   FRANCISCO DUARTE                                                                           
03216555420230570240653615062422512520230426003130301010072898003435280095F310400    06800000102             BPASUZANA MENEZS DE SOUZA        1954110903    010                                38180081081RUA DALVA RIOS DOS REIS       None      80   MAX NEUMAN                                                                                 
03216555420230570240653615062422512520230426003140301010072704605140843325F310400    04800000102             BPASILVIA REGINA DA SILVA        1974122402    010                                38180081081RUA ROSA CAVALINE             None      190  SALOMAO DRUMOND                                                                            
03216555420230570240653615062422512520230426003150301010072700505935560356F310400    02300000102             BPANATHALIA GIOVANA BORGES       1999110101    010                                38180081081RUA LUZDALMA COSTA DERRICO    None      105 BNOVO HORIZONTE                                                                             
03216555420230570240653615062422512520230426003160301010072704101139200271F310400    02300000102             BPAVITORIA ABADIA VIEIRA PINHEIRO1999101403    010                                38180081081RUA FRANCA                    None      40   NOVO HORIZONTE                                                                             
03216555420230570240653615062422512520230426003170301010072700806982791588F310400    00300000102             BPAANA BELLA RODRIGUES           2020032101    010                                38180081081JOSE EDUARDO DE MEDEIROS      None      40   NOVO HOROZINO                                                                              
03216555420230570240653615062422512520230426003180301010072700505935560356F310400    02300000102             BPANATHALIA GIOVANA BORGES       1999110101    010                                38180081081RUA LUZDALMA COSTA DERRICO    None      105 BNOVO HORIZONTE                                                                             
03216555420230570240653615062422512520230426003190301010072704101139200271F310400    02300000102             BPAVITORIA ABADIA VIEIRA PINHEIRO1999101403    010                                38180081081RUA FRANCA                    None      40   NOVO HORIZONTE                                                                             
03216555420230570240653615062422512520230426003200301010072700808942992983F310400    01600000102             BPAASHILLEY EDUARDA DE MORAIS    2006082801    010                                38180081081AZELIA DA SILVA SOUZA         None      75   NOVO HORIZONTE                                                                             
03216555420230570240653615062422512520230426004010301010072898002904527798M310400    01900000102             BPAJOAO GABRIEL SANTOS RIBEIRO   2003081801    010                                38180081081RUA ALBERTO TITO              None      55   ALVORADA                                                                                   
03216555420230570240653615062422512520230426004020301010072898002904527798M310400    01900000102             BPAJOAO GABRIEL SANTOS RIBEIRO   2003081801    010                                38180081081RUA ALBERTO TITO              None      55   ALVORADA                                                                                   
03216555420230570240653615062422512520230426004030301010072898004130520565M310400    00900000102             BPAKALEB NASCIMENTO TEIXEIRA BORG2013071603    010                                38180081081RUA BALTAZAR JOSE ALVES       None      545  PEDRA AZUL                                                                                 
03216555420230570240653615062422512520230426004040301010072898005898864565M310400    00400000102             BPAIKARO AUGUSTO VALERIO DA SILVA2018110403    010                                38180081081RUA JERONIMO CLAUDIO DUARTE   None      25   LOTEAMENTO NOVO PAO DE ACUCAR                                                              
03216555420230570240653615062422512520230426004050301010072708500395674870F310400    06400000102             BPASOLANGE DE FATIMA BORGES      1958100303    010                                38180081081RUA LUIZ COLOMBO              None      867  None                                                                                       
03216555420230570240653615062422512520230426004060301010072898004671830452F310400    00800000102             BPAMELISSA INACIO DOS SANTOS     2015053001    010                                38180081081RUA VIVALDO GASPAR JANUARIO   None      180  SANTA MARIA                                                                                
03216555420230570240653615062422512520230426004070301010072898002924613355F310400    03900000102             BPAABQUEILA CRISTINA NASARIO     1983081502    010                                38180081081ALOISIO ANTONIO DE ALMEIDA    None      130  JARDIM DAS OLIVEIRAS                                                                       
03216555420230570240653615062422512520230426004080301010072898005892357351F310400    00400000102             BPAPIETRA EVELLYN GOULART CRUZ   2018092003    010                                38180081081RUA LYGIA VALLE CARDOSO       None      515  CONJUNTO HABITACIONAL BOA VIST                                                             
03216555420230570240653615062422512520230429004090301010072707609299333897F310400    03500000102             BPAMARIA RAFAELA SOBREIRA PESSOA 1987103103    010                                38180081081RUA PAULO COELHO CAMPOS       None      25   JARDIM DAS OLIVEIRAS                                                                       
03216555420230570240653615062422512520230429004100301010072700602999686160F310400    03700000102             BPATAYLA APARECIDA FERREIRA      1986062701    010                                38180081081JOSEFA PEREIRA                None      310  SANTA RITA 2                                                                               
03216555420230570240653615062422512520230429004110301010072700005083041000M310400    03500000102             BPAJOVANILDO APARECIDO VIDAL DA S1987090901    010                                38180081081RUA ALEMANHA                  None      70   LOTEAMENTO NOVO HORIZONTE                                                                  
03216555420230570240653615062422512520230429004120301010072706200036348963M310400    06200000102             BPACARLITO BENEDITO BARBOSA      1961040203    010                                38180081081RUA ALCINO ROSA DOS SANTOS    None      180  SANTA RITA                                                                                 
03216555420230570240653615062422512520230429004130301010072700507182894459M310400    01400000102             BPAANDERSON FRANCA FERREIRA      2009061703    010                                38180081081RUA FERNANDO PAROLINE         None      167  BOM JESUS                                                                                  
03216555420230570240653615062422512520230429004140301010072898004808328447F310400    00700000102             BPAANNA VICTORIA FERREIRA PRUSSAK2015070601    010                                38180081081AVENIDA DOUTOR PEDRO DE PAULA None      1065 MICRO DISTRITO SANTA RITA                                                                  
03216555420230570240653615062422512520230429004150301010072700507182894459M310400    01400000102             BPAANDERSON FRANCA FERREIRA      2009061703    010                                38180081081RUA FERNANDO PAROLINE         None      167  BOM JESUS                                                                                  
03216555420230570240653615062422512520230429004160301010072898004016586854F310400    08700000102             BPAMARIA HELENA REZENDE          1936060602    010                                38180081081RUA ANA LUZIA DE RESENDE      None      275  SAO FRANCISCO                                                                              
03216555420230570240653615062422512520230429004170301010072706200036348963M310400    06200000102             BPACARLITO BENEDITO BARBOSA      1961040203    010                                38180081081RUA ALCINO ROSA DOS SANTOS    None      180  SANTA RITA                                                                                 
03216555420230570240653615062422512520230429004180301010072898004808328447F310400    00700000102             BPAANNA VICTORIA FERREIRA PRUSSAK2015070601    010                                38180081081AVENIDA DOUTOR PEDRO DE PAULA None      1065 MICRO DISTRITO SANTA RITA                                                                  
03216555420230570240653615062422512520230429004190301010072898005923208549F310400    00300000102             BPAJULIA GABRIELLY DOS SANTOS JAC2019081402    010                                38180081081FRANCISCO MATIAS FILHO        None      295  URCIANO LEMOS                                                                              
03216555420230570240653615062422512520230429004200301010072703401255040217M310400    01600000102             BPALUIZ GUSTAVO LOPES RESENDE    2007051201    010                                38180081081RUA EDSON MOREIRA             None      130  JARDIM NATALIA                                                                             
03216555420230570240653615062422512520230429005010301010072709603647354875M310400    01700000102             BPAPATRICK GABRIEL ALVES DA SILVA2005092603    010                                38180081081AVENIDA ANTONIO ALVARENGA DE RNone      295  MAX NEUMANN                                                                                
03216555420230570240653615062422512520230429005020301010072708908762461119M310400    05000000102             BPAALDAIR RODRIGUES DA SILVA     1972111903    010                                38180081081RUA SERVIA                    None      60B  NOVO HORIZONTE                                                                             
03216555420230570240653615062422512520230429005030301010072704608143089225M310400    00200000102             BPAEZEQUIEL EVARISTO DE OLIVEIRA 2021041703    010                                38180081081AVENIDA HITALO ROS            None      205 AMORADA DO SOL                                                                              
03216555420230570240653615062422512520230429005040301010072898006300406131F310400    00000000102             BPAMARIA ALICE OLIVEIRA TRINDADE 2022082101    010                                38180081081RUA DOUTOR BERNADINO LADEIRA  None      105  LOTEAMENTO MAX NEWMANN                                                                     
03216555420230570580249224123622512520230402006010301010072706305765758879F310400    03600000102             BPAANA CLAUDIA GONCALVES         1986091803    010                                38180081081BELCHIOR JOSE DOS SANTOS      None      55   VIL MAIOR                                                                                  
03216555420230570580249224123622512520230402006020301010072700202422577620F310400    02500000102             BPAJUNIA GARCIA DA CRUZ          1997081101    010                                38180081081RUA AGNELO VIEIRA ALVES       None      565  ANA PINTO DE ALMEIDA                                                                       
03216555420230570580249224123622512520230402006030301010072898006301311649F310400    00000000102             BPAAGHATA LOYSE ALVES DUTRA      2022083103    010                                38180081081RUA AMANCIO RIBEIRO DE RESENDENone      185  CONJUNTO HABITACIONAL BOA VIST                                                             
03216555420230570580249224123622512520230402006040301010072898006299566215M310400    00000000102             BPADAVI HENRIQUE BORGES LEMOS    2022081603    010                                38180081081RUA FERNAO DE NORONHA         None      273  ALVORADA                                                                                   
03216555420230570580249224123622512520230402006050301010072704000318663063F310400    04100000102             BPAELIANA CRISTINA DA SILVA ALMEI1982053103    010                                38180081081RUA DAS GARCAS                None      615  CINCINATO DE AVILA                                                                         
03216555420230570580249224123622512520230402006060301010072700007798016508F310400    00000000102             BPAISABELLE CRISTINA DA SILVA ROD2022122002    010                                38180081081RUA CELIDONIO VAZ DE REZANDE  None      115  SAO DOMINGOS                                                                               
03216555420230570580249224123622512520230402006070301010072706801725071823F310400    04800000102             BPALUCIENE GONCALVES DOS SANTOS  1975031703    010                                38180081081RUA JOSE ANGELO DE MOURA      None      70   SAO FRANCISCO                                                                              
03216555420230570580249224123622512520230402006080301010072705000294944651F310400    00300000102             BPAVALENTINA DAS CHAGAS CORREIA  2020030603    010                                38180081081RUA MARIA CANDIDA NOGUEIRA    None      105  SALOMAO DRUMOND                                                                            
03216555420230570580249224123622512520230402006090301010072898005153861211F310400    00600000102             BPAEMILLY HELOISE SILVA DE OLIVER2016121903    010                                38180081081RUA OLINTO RESENDE            None      230  URCIANO LEMOS                                                                              
03216555420230570580249224123622512520230402006100301010072898003922096885M310400    01200000102             BPAERICK RIBEIRO OLIVEIRA        2010111001    010                                38180081081RUA MARIA DE LOURDES DE ALMEIDNone      90   LOTEAMENTO MAX NEWMANN                                                                     
03216555420230570580249224123622512520230413006110301010072898006261602036F310400    00100000102             BPAALLYCE BORGES SANTOS SILVA    2021101703    010                                38180081081RUA LAZARO SEVERINO GOMES     None      60   LOTEAMENTO NOVO PAO DE ACUCAR                                                              
03216555420230570580249224123622512520230413006120301010072898004945695506M310400    00700000102             BPAGILMAR MIGUEL RODRIGUES DOS SA2016012003    010                                38180081081RUA AVENOR DE CARVALHO        None      345  URCIANO LEMOS                                                                              
03216555420230570580249224123622512520230413006130301010072702405530647925M310400    07800000102             BPAWALDECIO SERRA                1945070201    010                                38180081081RUA JOSE ALVES DE SOUZA       None      100  LOTEAMENTO NOVO PAO DE ACUCAR                                                              
03216555420230570580249224123622512520230413006140301010072702102724643992M310400    07200000102             BPADORA AUXILIDORA FRANCISCO     1950092601    010                                38180081081JOSE EUSTAQUIO CARDOSO        None      35   DOMINGOS ZEMA                                                                              
03216555420230570580249224123622512520230413006150301010072898005866351813M310400    00500000102             BPANATHAN LUIZ ARAUJO DE OLIVEIRA2018061701    010                                38180081081ZONA RURAL                    None      None FAZENDA                                                                                    
03216555420230570580249224123622512520230413007010301010072702804110214363F310400    01900000102             BPACHARLENE DE JESUS             2004050403    010                                38180081081RUA FERNANDO PAROLINE         None      000  INVASAO                                                                                    
03216555420230570580249224123622512520230413007020301010072898005896673487M310400    00400000102             BPAEMANUEL DO NASCIMENTO EURIPEDE2018101303    010                                38180081081RUA CASSIANO DE PAULA         None      02 A BOM JESUS                                                                                  
03216555420230570580249224123622512520230413007030301010072705401452111393F310400    05000000102             BPAMARIA IZABEL DO NASCIMENTO    1972102201    010                                38180081081RUATEREZINHA LEMOS            None      195  ALVORADA                                                                                   
03216555420230570580249224123622512520230413007040301010072898003460807611M310400    07900000102             BPAJOSE ALVARINO BARRETO         1943100903    010                                38180081081RUA WASHINGTON BARCELOS       None      141  SANTA RITA                                                                                 
03216555420230570580249224123622512520230413007050301010072898004601154644F310400    00800000102             BPAMICHELY ISABEL TEIXEIRA       2015021901    010                                38180081081RUA MARIO CAMPOS              None      221  VILA SAO PEDRO                                                                             
03216555420230570580249224123622512520230413007060301010072706000302049847M310400    04500000102             BPAOSNEI CRISTIANO ALEXANDRE     1977092503    010                                38180081081RUA DALVA RIOS DOS REIS       None      130  LOTEAMENTO MAX NEWMANN                                                                     
03216555420230570580249224123622512520230413007070301010072705000603765454M310400    02500000102             BPAMICAEL DOS SANTOS FERREIRA    1998041101    010                                38180081081AVENIDA WASHINGTON BARCELOS   None      501  MORADA DO SOL                                                                              
03216555420230570580249224123622512520230413007080301010072898004018802953F310400    01800000102             BPALAUANE JENIFER PEREIRA SILVA  2005013103    010                                38180081081RUA AGNELO VIEIRA ALVES       None      735  ANA PINTO DE ALMEIDA                                                                       
03216555420230570580249224123622512520230413007090301010072704000334188463F310400    04100000102             BPAMAISA SILVA FERREIRA          1982022002    010                                38180081081AVENIDA FRANCINO FERREIRA DA SNone      453  OROZINO TEIXEIRA                                                                           
03216555420230570580249224123622512520230413007100301010072701107364017080M310400    03700000102             BPATIAGO COSTA RODRIGUES         1986042403    010                                38180081081RUA ANTONIO AFONSO DO VALE    None      90   URCIANO LEMOS                                                                              
03216555420230570600732823354422512520230403008010301010072703609082486834M310400    04900000102             BPANIRIS ABADIA DE SOUSA REZENDE 1973111202    010                                38180081081RUA CARMELITA FELICIANO DOS SANone      75   LOTEAMENTO MAX NEWMANN                                                                     
03216555420230570600732823354422512520230403008020301010072703604019349332F310400    05000000102             BPAINEZ CILENE OLIVEIRA CAMARGOS 1973032203    010                                38180081081RUA MARIA JOSE DE ANDRADE     None      30   LOTEAMENTO NOVO PAO DE ACUCAR                                                              
03216555420230570600732823354422512520230403008030301010072703604019349332F310400    05000000102             BPAINEZ CILENE OLIVEIRA CAMARGOS 1973032203    010                                38180081081RUA MARIA JOSE DE ANDRADE     None      30   LOTEAMENTO NOVO PAO DE ACUCAR                                                              
03216555420230570600732823354422512520230403008040301010072704201223950986M310400    06000000102             BPALEONILDO BATISTA DA SILVA     1962122103    010                                38180081081RUA ENEAS SANTOS              None      76 F VILA SILVERIA                                                                              
03216555420230570600732823354422512520230403008050301010072165978452350018M310400    03100000102             BPAWEVERTON CARLOS MILITAO       1992060902    010                                38180081081RUA JOAO MARCELINO            None      210  AEROPORTO                                                                                  
03216555420230570600732823354422512520230403008060301010072706805732865523F310400    04000000102             BPADANIELA CRISTINA DA SILVA NETO1983033003    010                                38180081081RUA HELENA APARECIDA SILVA    None      70   LOTEAMENTO NOVO PAO DE ACUCAR                                                              
03216555420230570600732823354422512520230403008070301010072898002395755496M310400    02100000102             BPAIGOR ALVES TEIXEIRA           2001091802    010                                38180081081RUA JOAQUIM ALVES FERREIRA    None      665  URCIANO LEMOS                                                                              
03216555420230570600732823354422512520230403008080301010072703604019349332F310400    05000000102             BPAINEZ CILENE OLIVEIRA CAMARGOS 1973032203    010                                38180081081RUA MARIA JOSE DE ANDRADE     None      30   LOTEAMENTO NOVO PAO DE ACUCAR                                                              
03216555420230570600732823354422512520230403008090301010072700405384989050M310400    04000000102             BPAGIVAGO FERNANDO SILVA         1983052902    010                                38180081081RUA JOAOZINHO AUTO-ESCOLA     None      405  VILA UNIVERSITARIA                                                                         
03216555420230570600732823354422512520230403008100301010072898002335969902F310400    05700000102             BPACELINA DAS GRACA DE SOUZA     1965122903    010                                38180081081AVENIDA SEBASTIAO FERREIRA PINNone      825  ANA PINTO DE ALMEIDA                                                                       
03216555420230570600732823354422512520230403008110301010072898005932902274M310400    00300000102             BPAJOAO ANTONIO DOS SANTOS       2020020303    010                                38180081081RUA FRANCISCO MATIAS FILHO    None      615  URCIANO LEMOS                                                                              
03216555420230570600732823354422512520230404008120301010072898005194226006M310400    05300000102             BPAHEITOR CUNHA DO NASCIMENTO    1969123102    010                                38180081081RUA OSCAR ALVES DOS SANTOS    None      115  SANTA MARIA                                                                                
03216555420230570600732823354422512520230405008130301010072700002107205706F310400    02300000102             BPATAYNARA RAQUEL CARNEIRO DA SIL1999121603    010                                38180081081RUA AGNELO VIEIRA ALVES       None      180  ANA PINTO DE ALMEIDA                                                                       
03216555420230570600732823354422512520230406008140301010072898005845279404F310400    00500000102             BPAMARIA CLARA PERES DOS SANTOS  2018030203    010                                38180081081RUA PAU BRASIL                None      400  LOTEAMENTO PEP 12                                                                          
03216555420230570600732823354422512520230406008150301010072700504704033058F310400    05500000102             BPALUCIA DARC DA SILVA           1967100203    010                                38180081081ANTONIO ALVES DA COSTA        None      211  SAO PEDRO                                                                                  
03216555420230570600732823354422512520230406008160301010072898002308954282F310400    03700000102             BPAJANAINA INACIO DA SILVA       1986022303    010                                38180081081OLINTO RESENDE                None      295  URCIANO LEMOS                                                                              
03216555420230570600732823354422512520230406008170301010072702102724643992M310400    07200000102             BPADORA AUXILIDORA FRANCISCO     1950092601    010                                38180081081JOSE EUSTAQUIO CARDOSO        None      35   DOMINGOS ZEMA                                                                              
03216555420230570600732823354422512520230406008180301010072700504704033058F310400    05500000102             BPALUCIA DARC DA SILVA           1967100203    010                                38180081081ANTONIO ALVES DA COSTA        None      211  SAO PEDRO                                                                                  
03216555420230570600732823354422512520230406008190301010072700504704033058F310400    05500000102             BPALUCIA DARC DA SILVA           1967100203    010                                38180081081ANTONIO ALVES DA COSTA        None      211  SAO PEDRO                                                                                  
03216555420230570600732823354422512520230417008200301010072703403298425112F310400    05800000102             BPAIVONEIDE ANDRADE DOS SANTOS ME1964122501    010                                38180081081RUA ANANIAS TEIXEIRA JUNIOR   None      587  ALVORADA                                                                                   
03216555420230570600732823354422512520230417009010301010072703104837330760F310400    08700000102             BPAMARIA DA PENHA LIMA           1936022601    010                                38180081081RUA PEDRO DIAS DE CARVALHO    None      346  VILA SANTA TEREZINHA                                                                       
03216555420230570600732823354422512520230417009020301010072898001169903993M310400    02400000102             BPAPEDRO HENRIQUE RESENDE DUMONT 1998112801    010                                38180081081RUA JOAQUIM RIBEIRO DE RESENDENone      40   DOMINGOS ZEMA                                                                              
03216555420230570600732823354422512520230417009030301010072705007083728750F310400    02100000102             BPASTELA CARLA RODRIGUES         2002020203    010                                38180081081LAZARO SEVERINO GOMES         None      225  PAO DE ACUCAR                                                                              
03216555420230570600732823354422512520230417009040301010072898002925645765M310400    04900000102             BPAADEGMAR ANDRE CAETANO         1973112501    010                                38180081081RUA JOSE ROCHA DE OLIVEIRA    None      70   JARDIM DAS OLIVEIRAS                                                                       
03216555420230570600732823354422512520230417009050301010072707002836729734F310400    05300000102             BPAMARIA CILENE LUCENA           1970061201    010                                38180081081RUA MARIA AUXILIADORA DE OLIVENone      485  LOTEAMENTO NOVO PAO DE ACUCAR                                                              
03216555420230570600732823354422512520230419009060301010072704600116387221M310400    06300000102             BPAPAULO CESAR BARCELOS          1959082203    010                                38180081081FAZENDA CERRADO               None      S/N  ZONA RURAL                                                                                 
03216555420230570600732823354422512520230419009070301010072705008841460852M310400    03100000102             BPAMAIKE KELVIN CRIVELAN DA SILVA1991091001    010                                38180081081RUA ALYRIO TEIXEIRA           None      50   CONJUNTO HABITACIONAL PAO DE A                                                             
03216555420230570600732823354422512520230419009080301010072898003225012868F310400    03500000102             BPAAMANDA EMANUELLE MENDES DIAS  1987102203    010                                38180081081RUA SARGENTO GISLEI OLIVEIRA RNone      750  LOTEAMENTO NOVO PAO DE ACUCAR                                                              
03216555420230570600732823354422512520230419009090301010072705009686335558F310400    03300000102             BPACINTIA MARA CAMPOS DA SILVA   1989082103    010                                38180081081RUA BALTAZAR FERRAZ           None      35   DOMINGOS ZEMA                                                                              
03216555420230570600732823354422512520230419009100301010072700205942988229F310400    03400000102             BPAPOLLYANA CRISTINA DA SILVA    1989051101    010                                38180081081JAIRO FIUZA LEMOS             None      205 BSANTA RITA                                                                                 
03216555420230570600732823354422512520230419009110301010072898003901550838F310400    01000000102             BPAEMANUELLY BIANK  SANTOS SILVA 2012092501    010                                38180081081SITIO REAL                    None      None ZONA RURAL                                                                                 
03216555420230570600732823354422512520230419009120301010072702806174216164M310400    04400000102             BPAJACO SOUSA LANDIM             1978101003    010                                38180081081RUA JOAO DE BARRO             None      510  JOAO BOSCO TEIXEIRA                                                                        
03216555420230570600732823354422512520230419009130301010072702500337911335M310400    03700000102             BPAEDER DONIZETE DE OLIVEIRA     1985122303    010                                38180081081FRANCISCO MATIAS FILHO        None      275  URCIANO LEMOS                                                                              
03216555420230570600732823354422512520230419009140301010072701002841972693F310400    04800000102             BPAKELEM APARECIDA MOREIRA       1974122301    010                                38180081081RUA THEREZA THEODORA DA SILVA None      265 BPEDRA AZUL                                                                                 
03216555420230570600732823354422512520230419009150301010072704501683935120F310400    04200000102             BPAJULIA DE SOUZA CALMON         1980090903    010                                38180081081RUA ORCALINO JOSE CARNEIRO    None      55   CONJUNTO HABITACIONAL PAO DE A                                                             
03216555420230570330127256041022512520230420010010301010072702908507786874M310400    08000000102             BPAJOSE MARIA CELESTINO FILHO    1943052502    010                                38180081081ASTOLFO LEMOS                 None      590  TIRADENTES                                                                                 
03216555420230570330127256041022512520230420010020301010072700502918003956F310400    03900000102             BPALUZIANIA PEREIRA DUARTE       1983092703    010                                38180081081ALCIDES AUXILIADORA GOMES     None      185  MAX NEUMAN2                                                                                
03216555420230570330127256041022512520230420010030301010072709802088729896F310400    00500000102             BPAMARIA VITORIA PEREIRA         2018052101    010                                38180081081RUA DOS BEIJA-FLORES          None      25   JOAO BOSCO TEIXEIRA                                                                        
03216555420230570330127256041022512520230420010040301010072898001182017489M310400    06600000102             BPABALTAZAR DONIZETE DA SILVA    1956111201    010                                38180081081RUA JOSE BENEDITO DA SILVA    None      45   FRANCISCO DUARTE                                                                           
03216555420230570330127256041022512520230420010050301010072706704586539612F310400    02700000102             BPAJOYCE HELOISA HERCULANO PEREIR1996062402    010                                38180081081RUA DAS MARITACAS             None      135  JOAO BOSCO TEIXEIRA                                                                        
03216555420230570330127256041022512520230420010060301010072704501683935120F310400    04200000102             BPAJULIA DE SOUZA CALMON         1980090903    010                                38180081081RUA ORCALINO JOSE CARNEIRO    None      55   CONJUNTO HABITACIONAL PAO DE A                                                             
03216555420230570330127256041022512520230420010070301010072898001182017489M310400    06600000102             BPABALTAZAR DONIZETE DA SILVA    1956111201    010                                38180081081RUA JOSE BENEDITO DA SILVA    None      45   FRANCISCO DUARTE                                                                           
03216555420230570330127256041022512520230420010080301010072898005105214325M310400    00700000102             BPAYURI CARDOSO PIO DA SILVA     2016032703    010                                38180081081ANANIAS TEIXEIRA              None      180  SANTA RITA                                                                                 
03216555420230570330127256041022512520230420010090301010072708207618175940F310400    06300000102             BPANEIVA PEREIRA                 1960050801    010                                38180081081RUA MARIA FRANCISCA DOS SANTOSNone      55   DOMINGOS ZEMA                                                                              
03216555420230570330127256041022512520230420010100301010072705407403766093M310400    02500000102             BPAJHONATAN ANDRE DA SILVA       1997101001    010                                38180081081RUA DAS GARCAS                None      375  CICINATO DE AVILA                                                                          
03216555420230570330127256041022512520230420010110301010072898005930584844M310400    00300000102             BPAJOAO MIGUEL DA SILVA LIMA     2020010403    010                                38180081081RUA NAIR MANEIRA ALMEIDA      None      235  ANA PINTO DE ALMEIDA                                                                       
03216555420230570330127256041022512520230420010120301010072700001297782806F310400    02500000102             BPAADRIENE CRISTINA GOMES DE ALME1997070203    010                                38180081081RUA PADRE ANCHIETA            None      565  VILA SAO PEDRO                                                                             
03216555420230570330127256041022512520230420010130301010072706909199577637M310400    02000000102             BPAGUILHERME RODRIGUES DA SILVA  2003030201    010                                38180081081ANTONIO VAZ DA SILVA          None      445  ANA PINTO DE ALMEIDA                                                                       
03216555420230570330127256041022512520230420010140301010072700703448661080M310400    04400000102             BPAJAINE DE PAIVA SOUZA          1978102103    010                                38180081081SITIO NATAN                   None      None MUNICIPIO DE PERDIZES                                                                      
03216555420230570330127256041022512520230421010150301010072898003498977425M310400    01000000102             BPAJONATHAN FONTES CARVALHO      2012092203    010                                38180081081RUA JOSE JOAQUIM GERVASIO     None      85   RESIDENCIAL JARDIM DAS OLIVEIR                                                             
03216555420230570330127256041022512520230421010160301010072706500355400099M310400    06600000102             BPAMAURICIO ALVES MOREIRA        1956082303    010                                38180081081RUA ALBERTO GONCALVES         None      145  CICINATO DE AVILA                                                                          
03216555420230570330127256041022512520230423010170301010072700006298726009O310400    00400000102             BPAISABELA OLIVEIRA SILVA        2019022803    010                                38180081081AREA RURAL                    None      FAZ SAREA RURAL DE ARAXA                                                                        
03216555420230570330127256041022512520230423010180301010072700907927630195M310400    07200000102             BPAJOSE LEONEL NETO              1950082301    010                                38180081081RUA JOSE GONCALO DOS SANTOS   None      175  SAO FRANCISCO                                                                              
03216555420230570330127256041022512520230423010190301010072702402038317221F310400    02800000102             BPALERIANE JUVENCIO DE ARAUJO    1995050201    010                                38180081081RUA MARIA DAS DORES CARNEIRO  None      125  FRANCISCO DUARTE                                                                           
03216555420230570330127256041022512520230425010200301010072898005163999364F310400    00600000102             BPASOPHIA EMANUELLY OLIVEIRA DO V2017013001    010                                38180081081RUA JOAO BATISTA FERNANDES    None      562  VILA JOAO RIBEIRO                                                                          
03216555420230570330127256041022512520230425011010301010072898006271197045M310400    00100000102             BPATHEO MARTINS LIMA             2022012001    010                                38180081081RUA JUCA CANCIO               None      235  URCIANO LEMOS                                                                              
03216555420230570330127256041022512520230425011020301010072700608485816160F310400    04900000102             BPAVALDENICE APARECIDA SILVA MARC1973112601    010                                38180081081RUA RUY BARBOSA DA SILVA      None      150 ALOTEAMENTO NOVO PAO DE ACUCAR                                                              
03216555420230570330127256041022512520230425011030301010072898004986502664F310400    02400000102             BPATIFFANY SULIENE PIMENTA       1998083103    010                                38180081081RUA MARIA CANDIDA NOGUEIRA    None      345  SALOMAO DRUMOND                                                                            
03216555420230570330127256041022512520230425011040301010072700608485816160F310400    04900000102             BPAVALDENICE APARECIDA SILVA MARC1973112601    010                                38180081081RUA RUY BARBOSA DA SILVA      None      150 ALOTEAMENTO NOVO PAO DE ACUCAR                                                              
03216555420230570330127256041022512520230425011050301010072898002924915416F310400    01700000102             BPALAWENE EVELYN GOMES           2006031203    010                                38180081081RUA JUCA CANCIO               None      325  URCIANO LEMOS                                                                              
03216555420230570330127256041022512520230425011060301010072898006294182095F310400    00000000102             BPAGIOVANNA OLIVEIRA BORGES      2022062601    010                                38180081081WALDOMIRA LEMOS GUIMARAES     None      1110 PAO DE ACUCAR                                                                              
03216555420230570330127256041022512520230425011070301010072700007476393702F310400    04400000102             BPAFABIANA RIBEIRO DA CRUZ       1978122501    010                                38180081081RUA ROSALVO FRANCISCO MACHADO None      230  ABOLICAO                                                                                   
03216555420230570140566699653222512520230415012010301010072706900145860537F310400    05800000102             BPAMARA ONICE DE OLIVEIRA        1964112303    010                                38180081081RUA JOSE RAIMUNDO ROQUE       None      490  FRANCISCO DUARTE                                                                           
03216555420230570140566699653222512520230415012020301010072898002346068286F310400    01700000102             BPATAINARA MARINS CANDIDO GERALDO2006060603    010                                38180081081RUA ANDRE JOSE DA SILVA       None      40   SALOMAO DRUMOND                                                                            
03216555420230570140566699653222512520230415012030301010072898005153099301F310400    00600000102             BPABEATRIZ ALVES GULART          2017021001    010                                38180081081AVENIDA FRANCINO FERREIRA DA SNone      55   OROZINO TEIXEIRA                                                                           
03216555420230570140566699653222512520230415012040301010072703201657324793F310400    03400000102             BPAWALKIRIA RODRIGUE SIMAO       1989032903    010                                38180081081RUA OLINTO REZENDE            None      230  URCIANO LEMOS                                                                              
03216555420230570140566699653222512520230415012050301010072898005928831481M310400    00300000102             BPANICOLLAS MIGUEL DA SILVA SANTO2019120202    010                                38180081081RUA DOUTOR BERNADINO LADEIRA  None      235  LOTEAMENTO MAX NEWMANN                                                                     
03216555420230570140566699653222512520230417012060301010072700001045065204F310400    02200000102             BPAVANESSA PEREIRA DA SILVA      2001010601    010                                38180081081RUA DAVID ROBERTO REZENDE     None      635  ANA PINTO DE ALMEIDA                                                                       
03216555420230570140566699653222512520230417012070301010072898004945068986M310400    00700000102             BPAJOAO GABRIEL FLAUZINO DA SILVA2016011801    010                                38180081081RUA JOSE RAIMUNDO ROQUE       None      80   FRANCISCO DUARTE                                                                           
03216555420230570140566699653222512520230417012080301010072700008592600302F310400    02400000102             BPAGISLENE DA SILVA BORGES       1998092401    010                                38180081081RUA MARIA DE LOURDES DE ALMEIDNone      130  LOTEAMENTO MAX NEWMANN                                                                     
03216555420230570140566699653222512520230417012090301010072703106337076360F310400    03000000102             BPAKATIA SANDRINE DA SILVA       1992083003    010                                38180081081RUA DAS PATATIVAS             None      370  CICINATO DE AVILA                                                                          
03216555420230570140566699653222512520230417012100301010072898004194558784M310400    01000000102             BPAARTHUR FERREIRA SILVA         2012101501    010                                38180081081AVENIDA SEBASTIAO FERREIRA PINNone      890  SALOMAO DRUMOND                                                                            
03216555420230570140566699653222512520230417012110301010072898006251303885M310400    00100000102             BPARAVI MARQUES FERREIRA DOS SANT2021081002    010                                38180081081RUA ABILIO CASSIMIRO DE ARAUJONone      70   RESIDENCIAL CAMUA                                                                          
03216555420230570140566699653222512520230417013010301010072704106162464373F310400    06200000102             BPAMARIA LUCIA RIOS TEIXEIRA     1960081401    010                                38180081081RUA ANANIAS TEIXEIRA JUNIOR   None      643  ALVORADA                                                                                   
03216555420230570140566699653222512520230417013020301010072898003061604903F310400    01900000102             BPAALINE VITORIA FERREIRA DOS SAN2003111303    010                                38180081081RUA DAVID ROBERTO REZENDE     None      570  ANA PINTO DE ALMEIDA                                                                       
03216555420230570140566699653222512520230417013030301010072898005871616749M310400    00500000102             BPAHIGOR GUILHERME SILVA         2018060503    010                                38180081081LAZARO VAZ DE SAO PAULO       None      415  URCIANO LEMOS                                                                              
03216555420230570140566699653222512520230417013040301010072898003917670781F310400    04700000102             BPACRISTINA ALVES PINHEIRO ISAC  1975101903    010                                38180081081RUA MARIA BARRETO MARINS      None      45   JARDIM NATALIA 3                                                                           
03216555420230570140566699653222512520230417013050301010072702603714645549F310400    04900000102             BPAFRANCISLENE ALVES DA FONSECA  1974052301    010                                38180081081RUA RICARDO ROBERTO DE OLIVEIRNone      95   AEROPORTO                                                                                  
03216555420230570140566699653222512520230419013060301010072898003278914386F310400    04900000102             BPAALESSANDRA MARA DE SOUZA      1974050403    010                                38180081081RUA DORVINA TEREZINHA DE JESUSNone      125  CONJUNTO HABITACIONAL BOA VIST                                                             
03216555420230570140566699653222512520230419013070301010072898003941016441F310400    02300000102             BPABRUNA BERTOLINA               2000061902    010                                38180081081RUA OLINTO RESENDE            None      125  URCIANO LEMOS                                                                              
03216555420230570140566699653222512520230419013080301010072898000447115938F310400    02100000102             BPACARLA ADRIELI PACONDE CORREIA 2002051901    010                                38180081081RUA JOAQUIM ALVES BARCELOS    None      263  VILA GUIMARAES                                                                             
03216555420230570140566699653222512520230419013090301010072898004879517552M310400    00700000102             BPAARTHUR MIGUEL FARIA SILVA     2015110301    010                                38180081081RUA MARIA GONCALVES NOLLI     None      75   RESIDENCIAL JARDIM DAS OLIVEIR                                                             
03216555420230570140566699653222512520230420013100301010072700804489192980M310400    05600000102             BPAVITALINO MOREIRA DE SA NETO   1966101503    010                                38180081081RUA CARLOS DINIZ              None      15   JARDIM DAS OLIVEIRAS                                                                       
03216555420230570140566699653222512520230424013110301010072708407341133070F310400    00100000102             BPASOPHIA EMANUELLY OLIVEIRA DA S2022061802    010                                38180081081RUA TEREZA THEODORO DA SILVA  None      485  PEDRA AZUL                                                                                 
03216555420230570140566699653222512520230424013120301010072898005904770008M310400    00400000102             BPACALEBE PEREIRA DE OLIVEIRA    2019020801    010                                38180081081RUA LAURA LUIZA DO ROSARIO    None      40 A SANTA RITA                                                                                 
03216555420230570140566699653222512520230424013130301010072705101342287740M310400    08000000102             BPAJOAO BATISTA DA SILVA         1943010103    010                                38180081081RUA GUARANI                   None      405  SANTO ANTONIO                                                                              
03216555420230570140566699653222512520230424013140301010072700404409128648F310400    01800000102             BPAMARCIELI MARQUES              2005061403    010                                38180081081RUA ANTENOR SILVA SOARES      None      105  FRANCISCO DUARTE                                                                           
03216555420230570140566699653222512520230424013150301010072898004537815568M310400    01000000102             BPALUAN RODRIGUES DOS SANTOS     2012101103    010                                38180081081RUA CECILIA MARIA RIBEIRO     None      235  AEROPORTO                                                                                  
03216555420230570140566699653222512520230424013160301010072898006303048228M310400    00000000102             BPAISAAC HENRIQUE DOS SANTOS     2022091603    010                                38180081081RUA THEREZA THEODORA DA SILVA None      375 BPEDRA AZUL                                                                                 
03216555420230570140566699653222512520230424013170301010072702401045423227M310400    05600000102             BPAEURIPEDES DOS REIS SALVADOR   1967021603    010                                38180081081RUA ROSA CAVALINE             None      300  SALOMAO DRUMOND                                                                            
03216555420230570140566699653222512520230424013180301010072705009632276456F310400    04400000102             BPAANA PAULA RODRIGUES DE MORAIS 1979032903    010                                38180081081RUA DOUTOR TUBAL DE FREITAS   None      455  SERRA MORENA                                                                               
03216555420230570140566699653222512520230424013190301010072704503306460810F310400    03800000102             BPAURANIA RIBEIRO SANTOS         1984112403    010                                38180081081RUA FRANKILIN RIBEIRO FILHO   None      80   AEROPORTO                                                                                  
03216555420230570140566699653222512520230424013200301010072704209238573080F310400    02800000102             BPAGABRIELA MARTINS CHAGAS       1995032203    010                                38180081081RUA MIGUEL NOGUEIRA NETO      None      50   LEBLON                                                                                     
03216555420230570140566699653222512520230424014010301010072898003415787216F310400    04200000102             BPAIZABEL CRISTINA DELBIANCHI    1981061903    010                                38180081081RUA JOSE VIEIRA DORNELAS      None      170  SANTA MONICA                                                                               
03216555420230570140566699653222512520230424014020301010072898002926463067F310400    05200000102             BPAROSANGELA PINHEIRO BARROS     1970071803    010                                38180081081RUA OCTAVIO FONSECA           None      190  CONJUNTO HABITACIONAL PAO DE A                                                             
03216555420230570140566699653222512520230424014030301010072700006407194401F310400    02600000102             BPAISABELA CAROLINE DUARTE DE OLI1997010103    010                                38180081081RUA EDMO MESQUITA             None      115  NOVO SAO GERALDO                                                                           
03216555420230570140566699653222512520230424014040301010072700004053713107F310400    03200000102             BPAPRICILA GABRIELA DOS SANTOS JA1990101603    010                                38180081081RUA FRANCISCO MATIAS FILHO    None      295  URCIANO LEMOS                                                                              
03216555420230570140566699653222512520230424014050301010072898002347913117F310400    04800000102             BPADENISE CONSTANCIA DE AGUIAR   1974081003    010                                38180081081RUA DOS BEIJA-FLORES          None      35   JOAO BOSCO TEIXEIRA                                                                        
03216555420230570140566699653222512520230425014060301010072703106337076360F310400    03000000102             BPAKATIA SANDRINE DA SILVA       1992083003    010                                38180081081RUA DAS PATATIVAS             None      370  CICINATO DE AVILA                                                                          
03216555420230570140566699653222512520230425014070301010072703106337076360F310400    03000000102             BPAKATIA SANDRINE DA SILVA       1992083003    010                                38180081081RUA DAS PATATIVAS             None      370  CICINATO DE AVILA                                                                          
03216555420230570140566699653222512520230425014080301010072898006011347829M310400    00300000102             BPACAIO VALENTIN ALVES SILVA     2020013003    010                                38180081081RUA SARGENTO GISLEI OLIVEIRA RNone      200  LOTEAMENTO NOVO PAO DE ACUCAR                                                              
03216555420230570140566699653222512520230425014090301010072702402344895830F310400    02800000102             BPAANDREIA APARECIDA HENRIQUE DA 1994072903    010                                38180081081RUA AUGUSTO ALVES             None      115  SERRA MORENA                                                                               
03216555420230570000712393370722512520230421015010301010072898004133801417M310400    01000000102             BPAJOSE SIDNEY MONTEIRO VITOR    2013020503    010                                38180081081RUA IRMAS FRANCISCANA         None      105  ANA ANTONIA                                                                                
03216555420230570000712393370722512520230422015020301010072898004133801417M310400    01000000102             BPAJOSE SIDNEY MONTEIRO VITOR    2013020503    010                                38180081081RUA IRMAS FRANCISCANA         None      105  ANA ANTONIA                                                                                
03216555420230570000712393370722512520230422015030301010072898006257365777M310400    00100000102             BPAPEDRO DAVI COSTA DE AGUIAR    2021092001    010                                38180081081RUA LAZARO DE RESENDE         None      125B CAMUA                                                                                      
03216555420230570450030087721022512520230411016010301010072898003955668268F310400    01700000102             BPALARISSA KIMBERLY SILVA        2006042303    010                                38180081081RUA LAZARO SEVERINO GOMES     None      45   LOTEAMENTO NOVO PAO DE ACUCAR                                                              
03216555420230570450030087721022512520230411016020301010072705700486579130F310400    01400000102             BPALARISSA OLIVEIRA SILVA        2008083103    010                                38180081081RUA TEOFILO DOS SANTOS        None      273  VILA SAO PEDRO                                                                             
03216555420230570450030087721022512520230411016030301010072700200491166721M310400    01100000102             BPAARTHUR OLIVEIRA SILVA         2011071603    010                                38180081081RUA TEOFILO DOS SANTOS        None      273  VILA SAO PEDRO                                                                             
03216555420230570450030087721022512520230411016040301010072898005143556637M310400    01100000102             BPAKAWAN MACKLENY SILVA          2011072801    010                                38180081081RUA JOSE CARLOS BRAZ          None      120  SANTA MARIA                                                                                
03216555420230570450030087721022512520230411016050301010072705201452592873F310400    02100000102             BPAESTER CANDIDO VILELA          2002030403    010                                38180081081RUA EUGELIA DE AVILA RIBEIRO  None      15   LOTEAMENTO MAX NEWMANN                                                                     
03216555420230570450030087721022512520230411016060301010072898003987043328M310400    02900000102             BPABRUNO FERREIRA MARTINS        1994012401    010                                38180081081RUA JOAQUIM ALVES FERREIRA    None      525  URCIANO LEMOS                                                                              
03216555420230570450030087721022512520230411016070301010072706005370990445F310400    04100000102             BPAMIRIAN RODRIGUES              1982011802    010                                38180081081ERMOGENE DE PAULA NASCIMENTP  None      30   ANA PINTO DE ALMEIDA                                                                       
03216555420230570450030087721022512520230412016080301010072702400021361328M310400    04700000102             BPAJOSUEL ANGELO DE SANTANA      1976062903    010                                38180081081RUA LAZARO VAZ DE SAO PAULO   None      145  URCIANO LEMOS                                                                              
03216555420230570450030087721022512520230419016090301010072704105129294277F310400    00400000102             BPAHELOA CARDOSO DIAS OLIVEIRA   2018081703    010                                38180081081RUA BALTAZAR GOMES            None      55 A SAO FRANCISCO                                                                              
03216555420230570450030087721022512520230419016100301010072706504394209799M310400    03000000102             BPADANILO DE SOUZA RICARDO       1993062303    010                                38180081081RUA ERMINDA SOARES DE LOURDES None      570  TIRADENTES                                                                                 
03216555420230570450030087721022512520230419016110301010072898005147281845M310400    00600000102             BPAEMANUEL MAGALHAES VAZ DE OLIVE2016091001    010                                38180081081RUA WANIA RESENDE DE PAIVA    None      115  SANTA MONICA                                                                               
03216555420230570450030087721022512520230419016120301010072708609011594589M310400    04900000102             BPAZULEI RODRIGUES DE MELO       1974050701    010                                38180081081AVENIDA HITALO ROSSI          None      1715 MORADA DO SOL                                                                              
03216555420230570840778758586922512520230412017010301010072700407458363542M310400    03800000102             BPALUIZ CARLOS DO NASCIMENTO JUNI1984081603    010                                38180081081JOSE DE AVILA                 None      30   ANA ANTONIA                                                                                
03216555420230570840778758586922512520230412017020301010072898005820937084M310400    00500000102             BPAMATHEUS HENRIQUE MAXIMIANO E S2017111501    010                                38180081081RUA ERNESTO ROSA              None      300  URCIANO LEMOS                                                                              
03216555420230570840778758586922512520230412017030301010072708200661044341M310400    08600000102             BPAEURIPEDES CARLOS FERREIRA     1936083003    010                                38180081081RUA PAULO FARIA               None      169  BOM JESUS                                                                                  
03216555420230570840778758586922512520230412017040301010072700508323864152M310400    03000000102             BPAKLEBER JUNIOR XAVIER GONCALVES1992111503    010                                38180081081JOAQUIM GERALDO FILHO         None      879  OROZINO TEIXEIRA                                                                           
03216555420230570840778758586922512520230425017050301010072898005899562805M310400    00400000102             BPADAVI LUCCA BORGES HINHAM      2018111303    010                                38180081081RUA CHINA                     None      30   LOTEAMENTO NOVO HORIZONTE                                                                  
03216555420230570840778758586922512520230425017060301010072898004005179705F310400    01000000102             BPAMARIA CECILIA APARECIDA MAIA S2013042603    010                                38180081081RUA PAULO HUMBERTO DE REZENDE None      30   RESIDENCIAL JARDIM DAS OLIVEIR                                                             
03216555420230570840778758586922512520230425017070301010072705804495961630F310400    00400000102             BPAIASMIM FERREIRA ALVES         2019042603    010                                38180081081RUA CARMELO APARECIDO DE CARVANone      95   FRANCISCO DUARTE                                                                           
03216555420230570840778758586922512520230425017080301010072898004662969915M310400    01900000102             BPAGUILHERME HENRIQUE CLEMENTE   2003110703    010                                38180081081RUA LAZARO SEVERINO GOMES     None      245  PAO ACUCAR 3                                                                               
03216555420230570840778758586922512520230425017090301010072702006378411280F310400    00500000102             BPAMARIA CLARA DE SOUZA SENA     2018011903    010                                38180081081RUA ANTENOR SILVA SOARES      None      120  FRANCISCO DUARTE                                                                           
03216555420230570840778758586922512520230425017100301010072898003021889915M310400    05900000102             BPASALVADOR VILELA DA SILVA      1963111603    010                                38180081081SEBASTIAO FERREIRA PINTO      None      370  SALOMAO DRUMOND                                                                            
03216555420230570840778758586922512520230425017110301010072898003021889915M310400    05900000102             BPASALVADOR VILELA DA SILVA      1963111603    010                                38180081081SEBASTIAO FERREIRA PINTO      None      370  SALOMAO DRUMOND                                                                            
03216555420230570840778758586922512520230425017120301010072700202933880329F310400    02000000102             BPATAINARA DE OLIVEIRA ROCHA     2002073003    010                                38180081081RUA BEIJA FLORES              None      220  JOAO BOSCO TEIXEIRA                                                                        
03216555420230570840778758586922512520230425017130301010072700202933880329F310400    02000000102             BPATAINARA DE OLIVEIRA ROCHA     2002073003    010                                38180081081RUA BEIJA FLORES              None      220  JOAO BOSCO TEIXEIRA                                                                        
03216555420230570840778758586922512520230425017140301010072898006300987177F310400    00000000102             BPAVITORIA RODRIGUES IZIQUIEL    2022082701    010                                38180081081AVENIDA CARICIO AFONSO RIBEIRONone      45   AEROPORTO                                                                                  
03216555420230570840778758586922512520230425017150301010072898003287105231M310400    01400000102             BPATIAGO LEONARDO RIBEIRO        2009012603    010                                38180081081RUA FRANCISCO MATIAS FILHO    None      315  URCIANO LEMOS                                                                              
03216555420230570840778758586922512520230425017160301010072708003362369227F310400    05300000102             BPAROSANGELA CONSUELO GOMES      1969110403    010                                38180081081SADY PERFEITO                 None      285 ANone                                                                                       
03216555420230570840778758586922512520230425017170301010072898005860488116F310400    00500000102             BPANICOLLY EMANUELLY GOULART     2018042603    010                                38180081081RUA JUNCIONARIO JOSE GUERRA   None      625  FRANCISCO DUARTE                                                                           
03216555420230570840778758586922512520230425017180301010072898005925536225F310400    00300000102             BPALAYLA EMANUELLY FARIA SILVA   2019102701    010                                38180081081RUA MARIA GONCALVES NOLLI     None      75   RESIDENCIAL JARDIM DAS OLIVEIR                                                             
03216555420230570840778758586922512520230425017190301010072898000993247743F310400    04100000102             BPAMARISA ALVES FERREIRA         1982022401    010                                38180081081RUA JOAQUIM GERALDO FILHO     None      1040 OROZINO TEIXEIRA                                                                           
03216555420230570840778758586922512520230425017200301010072704209238573080F310400    02800000102             BPAGABRIELA MARTINS CHAGAS       1995032203    010                                38180081081RUA MIGUEL NOGUEIRA NETO      None      50   LEBLON                                                                                     
03216555420230570840778758586922512520230428018010301010072898004021310993M310400    01000000102             BPAMIGUEL MARIANO FLORENTINO     2013041201    010                                38180081081RUA JUCA CANCIO               None      85   URCIANO LEMOS                                                                              
03216555420230570840778758586922512520230428018020301010072704602730755030F310400    04000000102             BPACINTIA APARECIDA VALERIO CALAT1983051603    010                                38180081081RUA DAS PATATIVAS             None      85   CICINATO DE AVILA                                                                          
03216555420230570840778758586922512520230428018030301010072704507357780611M310400    04700000102             BPAJOSE CARLOS LEMOS             1975111301    010                                38180081081RUA JAIR BELEM GOULARD        None      80   SAO FRANCISCO                                                                              
03216555420230570840778758586922512520230428018040301010072702108714709791F310400    02900000102             BPALUCIQUELLE DOS SANTOS LIMA    1994061503    010                                38180081081RUA MARIETA BATISTA LIMA GUIMANone      30   CONJUNTO HABITACIONAL BOA VIST                                                             
03216555420230570840778758586922512520230428018050301010072700805493168488M310400    00500000102             BPAADRIAN CESAR DA SILVA BELIZARI2018022303    010                                38180081081RUA SEBASTIAO RODRIGUES DE MELNone      110  LOTEAMENTO MAX NEWMANN                                                                     
03216555420230570840778758586922512520230428018060301010072700808902803284M310400    03800000102             BPARODNEI ANTONIO NATAL          1984071502    010                                38180081081RUA HERMANTINA DRUMOND        None      55   JARDIM DAS PRIMAVERAS                                                                      
03216555420230570840778758586922512520230428018070301010072704807551519440F310400    04700000102             BPARONILDA DE FATIMA SILVA       1976011001    010                                38180081081RUA TUNICO DO ALONSO          None      180  URCIANO LEMOS                                                                              
03216555420230570840778758586922512520230428018080301010072704807551519440F310400    04700000102             BPARONILDA DE FATIMA SILVA       1976011001    010                                38180081081RUA TUNICO DO ALONSO          None      180  URCIANO LEMOS                                                                              
03216555420230570840778758586922512520230428018090301010072898001155676566F310400    03200000102             BPAISABELLE DIAS ROSA            1990070901    010                                38180081081RUA ANTONIO DOS SANTOS        None      40   CICINATO DE AVILA                                                                          
03216555420230570840778758586922512520230428018100301010072704107103529376F310400    02100000102             BPARAFAELA RODRIGUES DE SA       2001110203    010                                38180081081RUA HELIO MILAGRES            None      215  NOVO HORIZONTE                                                                             
03216555420230570840778758586922512520230428018110301010072898003452564039M310400    01200000102             BPATIAGO SIMOES DA SILVA         2010093001    010                                38180081081...                           None      145  ...                                                                                        
03216555420230570840778758586922512520230428018120301010072898003461938531M310400    02000000102             BPAMATEUS HENRIQUE MARTINS MORAIS2003021101    010                                38180081081RUA BENEDITO IDELFONSO TORRES None      15   LOTEAMENTO NOVO PAO DE ACUCAR                                                              
03216555420230570840778758586922512520230428019010301010072898003465747617M310400    01100000102             BPAKAUA FERREIRA SILVA           2012042303    010                                38180081081FRANCINO FERREIRA DA SILVA    None      385  SANTA MONICA                                                                               
03216555420230570840778758586922512520230428019020301010072706704549735519F310400    02100000102             BPAVANESSA VIEIRA PINHEIRO       2002022603    010                                38180081081RUA FRANCA                    None      40   LOTEAMENTO NOVO HORIZONTE                                                                  
03216555420230570840778758586922512520230428019030301010072898003210785769M310400    02300000102             BPAGABRIEL EURIPEDES SILVA       2000022103    010                                38180081081RURAL                         None      0    RURAL                                                                                      
03216555420230570840778758586922512520230428019040301010072704602730755030F310400    04000000102             BPACINTIA APARECIDA VALERIO CALAT1983051603    010                                38180081081RUA DAS PATATIVAS             None      85   CICINATO DE AVILA                                                                          
03216555420230570840778758586922512520230428019050301010072898006222278525M310400    00200000102             BPADAVIH LUCCA BONIFACIO DE OLIVE2020103101    010                                38180081081RUA RIO GRANDE DO SUL         None      216  SAO GERALDO                                                                                
03216555420230570840778758586922512520230428019060301010072708002899223224M310400    00700000102             BPAMARCIO NETO DA SILVA MARTINS T2016020603    010                                38180081081JOAQUIM ALVES FEERREIRA       None      350  URCIANO LEMOS                                                                              
03216555420230570840778758586922512520230428019070301010072700007036924505F310400    04000000102             BPAADRIANA GONCALVES CRUZEIRO    1982090103    010                                38180081081RUA GERONIMO CLAUDIO DO ARTE  None      185  PAO DE ACUCAR 4                                                                            
03216555420230570840778758586922512520230428019080301010072898005820937084M310400    00500000102             BPAMATHEUS HENRIQUE MAXIMIANO E S2017111501    010                                38180081081RUA ERNESTO ROSA              None      300  URCIANO LEMOS                                                                              
03216555420230570840778758586922512520230428019090301010072700208980914930F310400    01400000102             BPAKETLEYN STEPHANY ROSA DE OLIVE2009032701    010                                38180081081RUA JOANA MATOS LIMA          None      465  JARDIM NATALIA                                                                             
03216555420230570840778758586922512520230428019100301010072700208980914930F310400    01400000102             BPAKETLEYN STEPHANY ROSA DE OLIVE2009032701    010                                38180081081RUA JOANA MATOS LIMA          None      465  JARDIM NATALIA                                                                             
03216555420230570840778758586922512520230428019110301010072703401255040217M310400    01600000102             BPALUIZ GUSTAVO LOPES RESENDE    2007051201    010                                38180081081RUA EDSON MOREIRA             None      130  JARDIM NATALIA                                                                             
03216555420230570810181439221022512520230411020010301010072898003987043328M310400    02900000102             BPABRUNO FERREIRA MARTINS        1994012401    010                                38180081081RUA JOAQUIM ALVES FERREIRA    None      525  URCIANO LEMOS                                                                              
03216555420230570810181439221022512520230411020020301010072708202678791848M310400    03000000102             BPAROBSON EUSTAQUIO DA SILVA     1993012601    010                                38180081081ALEXANDRE DUMOND              None      134  SANTA LUZIA                                                                                
03216555420230570810181439221022512520230411020030301010072701800289574671F310400    03100000102             BPAFLORENCA SILVA CARNEIRO       1992062603    010                                38180081081RUA ALCIDES AUXILIADORA GOMES None      70   MAX NEUMA2                                                                                 
03216555420230570810181439221022512520230411020040301010072801440449378514M310400    03900000102             BPATHIAGO JOSE DE OLIVEIRA DOS RE1984031901    010                                38180081081RUA BALTAZAR GONCALVES DE MATONone      215  CONJUNTO HABITACIONAL PAO DE A                                                             
03216555420230570810181439221022512520230411020050301010072898003984007215F310400    01000000102             BPAANA SOPHIA DA SILVA           2013040703    010                                38180081081RUA SANTA CATARINA            None      50   SAO GERALDO                                                                                
03216555420230570810181439221022512520230411020060301010072706305150945480F310400    04700000102             BPALUCILENE CANDIDO GOMES        1976021601    010                                38180081081RUA DAVID ROBERTO REZENDE     None      215  ANA PINTO DE ALMEIDA                                                                       
03216555420230570810181439221022512520230411020070301010072700503355829854F310400    05700000102             BPAVERONICE DOS SANTOS DE SANTANA1965121603    010                                38180081081RUA JASON ARMANDO DE PAULO    None      04   BOM JESUS                                                                                  
03216555420230570810181439221022512520230411020080301010072898003901868722F310400    04800000102             BPAARLINDA PEREIRA               1975011201    010                                38180081081RUA JOAO TIBURCIO DA TRINDADE None      320  PAO DE ACUCAR 3                                                                            
03216555420230570810181439221022512520230422020090301010072700906934670694M310400    04900000102             BPADIRCEU WANDER BERNARDES DE MOU1974062303    010                                38180081081RUA RIO BRANCO                None      57   CENTRO                                                                                     
03216555420230570810181439221022512520230422020100301010072898003219212087F310400    01500000102             BPATALYA POLTRONIERI SILVA       2008030203    010                                38180081081CARLOS DINIZ                  None      85   RESIDENCIAL JARDIM DAS OLIVEIR                                                             
03216555420230570810181439221022512520230422020110301010072706400677376782F310400    01300000102             BPALIVIA EDUARDA CRUZ            2010061503    010                                38180081081SERGIA DA CUNHA VASCONCELOS   None      170  SANTA RITA 2                                                                               
03216555420230570810181439221022512520230422020120301010072898004107548947F310400    04600000102             BPAAPARECIDA LUZIA FERNANDES     1977020601    010                                38180081081RUA CORINA MARIA LUIZA        None      15   SAO FRANCISCO                                                                              
03216555420230570810181439221022512520230422020130301010072706001823803443F310400    03500000102             BPATANIA CRISTINA DOS SANTOS     1988061703    010                                38180081081RUA JUVENAL PEREIRA MARQUES   None      230  ALVORADA                                                                                   
03216555420230570810181439221022512520230422020140301010072706205538111263M310400    03100000102             BPAGERVESON GERMANO GONDI        1992031701    010                                38180081081SANTA CATARINA                None      430  SAO GERALDO                                                                                
03216555420230570810181439221022512520230422020150301010072706701523012215M310400    00400000102             BPAIGOR DIAS XAVIER JUNIOR       2018080303    010                                38180081081RUA PIAUI                     None      478  SAO GERALDO                                                                                
03216555420230570680125809352522512520230404021010301010072702704138116960M310400    05500000102             BPAROBERTO HONORIO DE SOUZA      1968011001    010                                38180081081RUA ISMAR FERREIRA DA SILVA   None      30   BOM JESUS                                                                                  
03216555420230570680125809352522512520230404021020301010072708600503360486F310400    07100000102             BPANEUZA ROSA CARDOSO DIAS       1951092501    010                                38180081081RUA RICARDO ROBERTO DE OLIVEIRNone      305  AEROPORTO                                                                                  
03216555420230570680125809352522512520230404021030301010072898003430806064F310400    01700000102             BPAANA VITORIA ALVES DE OLIVEIRA 2005090501    010                                38180081081RUA JOAQUIM MARQUES BORGES    None      15   MICRO DISTRITO SANTA RITA                                                                  
03216555420230570680125809352522512520230404021040301010072704806027327545M310400    05700000102             BPAANTONIO RICARDO ALVES         1966022701    010                                38180081081AVENIDA JOSE ALBERTO FONTES   None      110  URCIANO LEMOS                                                                              
03216555420230570680125809352522512520230404021050301010072706508307748894F310400    05400000102             BPAMARALICE ALVES DE LIMA        1968092003    010                                38180081081RUA PA-12                     None      90   LOTEAMENTO NOVO PAO DE ACUCAR                                                              
03216555420230570680125809352522512520230404021060301010072703009808879771F310400    04800000102             BPALUCIENE CRISTINA SOUZA DE AQUI1974071501    010                                38180081081RUA OLEGARIA DE ALMEIDA COSTA None      550  ANA PINTO DE ALMEIDA                                                                       
03216555420230570680125809352522512520230404021070301010072704608142287724F310400    03400000102             BPALORIVANIA MELCHIOR RODRIGUES  1988100602    010                                38180081081RUA IVONE RODRIGUES           None      35   OROZINO TEIXEIRA                                                                           
03216555420230570680125809352522512520230404021080301010072898006263541808M310400    00100000102             BPAHELIAB COSTA DA SILVA         2021110303    010                                38180081081RUA IGNEZ MARIA ALVES         None      145  ANA PINTO DE ALMEIDA                                                                       
03216555420230570680125809352522512520230404021090301010072898005136253098M310400    01800000102             BPARAYSON SOARES ANDRADE         2005060803    010                                38180081081AVENIDA DOUTOR PEDRO DE PAULA None      155  MICRO DISTRITO SANTA RITA                                                                  
03216555420230570680125809352522512520230411021100301010072702006878499586F310400    07100000102             BPAJUDITH PERES GARCIA           1951121203    010                                38180081081AVENIDA SEBASTIAO FERREIRA PINNone      475  SALOMAO DRUMOND                                                                            
03216555420230570680125809352522512520230411021110301010072708001329561724M310400    05500000102             BPAVALMIR LUIZ DA SILVA          1967080401    010                                38180081081RUA JOAO DE ARRUDA NETO       None      265  FENICIA                                                                                    
03216555420230570680125809352522512520230411021120301010072898004838776375F310400    03800000102             BPAERIKA FERNANDA DIAS EUSTAQUIO 1985061301    010                                38180081081RUA OLINTO RESENDE            None      240  URCIANO LEMOS                                                                              
03216555420230570680125809352522512520230411021130301010072702803120513966M310400    04200000102             BPAGERMANO JASON DIAS            1980092101    010                                38180081081RUA JOSE JOAQUIM GERVASIO     None      115  JARDIM DA SOLIVEIRA                                                                        
03216555420230570680125809352522512520230411021140301010072898006267167064M310400    00100000102             BPAIZAC GABRIEL SOUSA DA SILVA   2021112001    010                                38180081081RUA JOSE RAIMUNDO ROQUE       None      260  FRANCISCO DUARTE                                                                           
03216555420230570680125809352522512520230411021150301010072700007998316904M310400    04300000102             BPALUCIANO DA SILVA              1979081101    010                                38180081081MARIA VICENCIA DE FARIA       None      35   SALOMAO DRUMOND                                                                            
03216555420230570680125809352522512520230411021160301010072703002822497078M310400    06300000102             BPAPEDRO ROGERIO DA SILVA        1960032401    010                                38180081081RUA ANTONIO FREITAS           None      65   FRANCISCO DUARTE                                                                           
03216555420230570680125809352522512520230411021170301010072706806254682725F310400    01600000102             BPAMARIA JULIA DA SILVA NETA     2006090803    010                                38180081081RUA MARIA JOSE FERES          None      205  LOTEAMENTO MAX NEWMANN                                                                     
03216555420230570680125809352522512520230411021180301010072701803291659878F310400    03900000102             BPAANDREZA CRISTINA CIRIACO      1984051703    010                                38180081081RUA RUFINO DE MOURA BORGES    None      90   CONJUNTO HABITACIONAL PAO DE A                                                             
03216555420230570680125809352522512520230411021190301010072701003832502397M310400    05300000102             BPAERNANDO JOSE DE PINHO         1970011001    010                                38180081081RUA MANOEL CLEMENTE GOMES     None      180  NOVA ALIANCA                                                                               
03216555420230570680125809352522512520230411021200301010072708403280730364M310400    03900000102             BPADANIEL LUIS FELIPE            1983071901    010                                38180081081RUA ANTONIO FREITAS           None      40   SANTA MONICA                                                                               
03216555420230570680125809352522512520230411022010301010072706204542251367F310400    03100000102             BPADANIELLE FERREIRA DE OLIVEIRA 1992042901    010                                38180081081RUA PARANA                    None      105 BSAO GERALDO                                                                                
03216555420230570680125809352522512520230411022020301010072706801788140326F310400    03700000102             BPASILVIA GUIMARAES DE FRANCA    1986062301    010                                38180081081FAZENDA SANTA LUCIA           None      None None                                                                                       
03216555420230570680125809352522512520230411022030301010072709801017744093M310400    03300000102             BPALUCAS DA SILVA                1989111303    010                                38180081081RUA MARIETA DORNELAS          None      190  JARDIM NATALIA                                                                             
03216555420230570680125809352522512520230411022040301010072898004600847263F310400    00800000102             BPAALESSANDRA SILVA MAGALHAES    2015021201    010                                38180081081RUA SEBASTIAO MARCELINO       None      35   DOMINGO ZEMA                                                                               
03216555420230570680125809352522512520230412022050301010072898004004030287M310400    01000000102             BPADAVI OLIVEIRA AGENOR          2013010903    010                                38180081081RUA ERNESTO ROSA              None      15   URCIANO LEMOS                                                                              
